{
  "contractName": "ERC721",
  "abi": [
    {
      "anonymous": false,
      "inputs": [
        {
          "indexed": true,
          "internalType": "address",
          "name": "_owner",
          "type": "address"
        },
        {
          "indexed": true,
          "internalType": "address",
          "name": "_approved",
          "type": "address"
        },
        {
          "indexed": true,
          "internalType": "uint256",
          "name": "_tokenId",
          "type": "uint256"
        }
      ],
      "name": "Approval",
      "type": "event"
    },
    {
      "anonymous": false,
      "inputs": [
        {
          "indexed": true,
          "internalType": "address",
          "name": "_from",
          "type": "address"
        },
        {
          "indexed": true,
          "internalType": "address",
          "name": "_to",
          "type": "address"
        },
        {
          "indexed": true,
          "internalType": "uint256",
          "name": "_tokenId",
          "type": "uint256"
        }
      ],
      "name": "Transfer",
      "type": "event"
    },
    {
      "inputs": [
        {
          "internalType": "bytes4",
          "name": "interfaceId",
          "type": "bytes4"
        }
      ],
      "name": "supportsInterface",
      "outputs": [
        {
          "internalType": "bool",
          "name": "",
          "type": "bool"
        }
      ],
      "stateMutability": "view",
      "type": "function"
    },
    {
      "inputs": [
        {
          "internalType": "address",
          "name": "_owner",
          "type": "address"
        }
      ],
      "name": "balanceOf",
      "outputs": [
        {
          "internalType": "uint256",
          "name": "",
          "type": "uint256"
        }
      ],
      "stateMutability": "view",
      "type": "function"
    },
    {
      "inputs": [
        {
          "internalType": "uint256",
          "name": "_tokenId",
          "type": "uint256"
        }
      ],
      "name": "ownerOf",
      "outputs": [
        {
          "internalType": "address",
          "name": "",
          "type": "address"
        }
      ],
      "stateMutability": "view",
      "type": "function"
    },
    {
      "inputs": [
        {
          "internalType": "address",
          "name": "_from",
          "type": "address"
        },
        {
          "internalType": "address",
          "name": "_to",
          "type": "address"
        },
        {
          "internalType": "uint256",
          "name": "_tokenId",
          "type": "uint256"
        }
      ],
      "name": "transferFrom",
      "outputs": [],
      "stateMutability": "payable",
      "type": "function"
    },
    {
      "inputs": [
        {
          "internalType": "address",
          "name": "_to",
          "type": "address"
        },
        {
          "internalType": "uint256",
          "name": "tokenId",
          "type": "uint256"
        }
      ],
      "name": "approve",
      "outputs": [],
      "stateMutability": "payable",
      "type": "function"
    },
    {
      "inputs": [
        {
          "internalType": "address",
          "name": "spender",
          "type": "address"
        },
        {
          "internalType": "uint256",
          "name": "tokenId",
          "type": "uint256"
        }
      ],
      "name": "isApprovedOrOwner",
      "outputs": [
        {
          "internalType": "bool",
          "name": "",
          "type": "bool"
        }
      ],
      "stateMutability": "view",
      "type": "function"
    },
    {
      "inputs": [
        {
          "internalType": "uint256",
          "name": "tokenId",
          "type": "uint256"
        }
      ],
      "name": "getApproved",
      "outputs": [
        {
          "internalType": "address",
          "name": "",
          "type": "address"
        }
      ],
      "stateMutability": "view",
      "type": "function"
    }
  ],
  "bytecode": "0x608060405234801561001057600080fd5b506100407f01ffc9a7a5cef8baa21ed3c5c0d7e23accb804b619e9333b597f47a0d84076e261004560201b60201c565b610196565b63ffffffff60e01b817bffffffffffffffffffffffffffffffffffffffffffffffffffffffff1916036100ad576040517f08c379a00000000000000000000000000000000000000000000000000000000081526004016100a490610176565b60405180910390fd5b6001600080837bffffffffffffffffffffffffffffffffffffffffffffffffffffffff19167bffffffffffffffffffffffffffffffffffffffffffffffffffffffff1916815260200190815260200160002060006101000a81548160ff02191690831515021790555050565b600082825260208201905092915050565b7f496e76616c696420696e74657266616365207265717565737400000000000000600082015250565b6000610160601983610119565b915061016b8261012a565b602082019050919050565b6000602082019050818103600083015261018f81610153565b9050919050565b610f0b806101a56000396000f3fe6080604052600436106100705760003560e01c806323b872dd1161004e57806323b872dd1461010b578063430c2081146101275780636352211e1461016457806370a08231146101a157610070565b806301ffc9a714610075578063081812fc146100b2578063095ea7b3146100ef575b600080fd5b34801561008157600080fd5b5061009c6004803603810190610097919061094b565b6101de565b6040516100a99190610993565b60405180910390f35b3480156100be57600080fd5b506100d960048036038101906100d491906109e4565b610245565b6040516100e69190610a52565b60405180910390f35b61010960048036038101906101049190610a99565b61024c565b005b61012560048036038101906101209190610ad9565b6103e7565b005b34801561013357600080fd5b5061014e60048036038101906101499190610a99565b610402565b60405161015b9190610993565b60405180910390f35b34801561017057600080fd5b5061018b600480360381019061018691906109e4565b6104cf565b6040516101989190610a52565b60405180910390f35b3480156101ad57600080fd5b506101c860048036038101906101c39190610b2c565b610580565b6040516101d59190610b68565b60405180910390f35b6000806000837bffffffffffffffffffffffffffffffffffffffffffffffffffffffff19167bffffffffffffffffffffffffffffffffffffffffffffffffffffffff1916815260200190815260200160002060009054906101000a900460ff169050919050565b6000919050565b6000610257826104cf565b90508073ffffffffffffffffffffffffffffffffffffffff168373ffffffffffffffffffffffffffffffffffffffff16036102c7576040517f08c379a00000000000000000000000000000000000000000000000000000000081526004016102be90610be0565b60405180910390fd5b8073ffffffffffffffffffffffffffffffffffffffff163373ffffffffffffffffffffffffffffffffffffffff1614610335576040517f08c379a000000000000000000000000000000000000000000000000000000000815260040161032c90610c4c565b60405180910390fd5b826003600084815260200190815260200160002060006101000a81548173ffffffffffffffffffffffffffffffffffffffff021916908373ffffffffffffffffffffffffffffffffffffffff160217905550818373ffffffffffffffffffffffffffffffffffffffff168273ffffffffffffffffffffffffffffffffffffffff167f8c5be1e5ebec7d5bd14f71427d1e84f3dd0314c0f7b2291e5b200ac8c7c3b92560405160405180910390a4505050565b6103f13382610402565b506103fd838383610637565b505050565b600061040d8261087c565b61044c576040517f08c379a000000000000000000000000000000000000000000000000000000000815260040161044390610cb8565b60405180910390fd5b6000610457836104cf565b90508073ffffffffffffffffffffffffffffffffffffffff168473ffffffffffffffffffffffffffffffffffffffff1614806104c657508373ffffffffffffffffffffffffffffffffffffffff166104ae84610245565b73ffffffffffffffffffffffffffffffffffffffff16145b91505092915050565b6000806001600084815260200190815260200160002060009054906101000a900473ffffffffffffffffffffffffffffffffffffffff169050600073ffffffffffffffffffffffffffffffffffffffff168173ffffffffffffffffffffffffffffffffffffffff1603610577576040517f08c379a000000000000000000000000000000000000000000000000000000000815260040161056e90610d24565b60405180910390fd5b80915050919050565b60008073ffffffffffffffffffffffffffffffffffffffff168273ffffffffffffffffffffffffffffffffffffffff16036105f0576040517f08c379a00000000000000000000000000000000000000000000000000000000081526004016105e790610d24565b60405180910390fd5b600260008373ffffffffffffffffffffffffffffffffffffffff1673ffffffffffffffffffffffffffffffffffffffff168152602001908152602001600020549050919050565b600073ffffffffffffffffffffffffffffffffffffffff168273ffffffffffffffffffffffffffffffffffffffff16036106a6576040517f08c379a000000000000000000000000000000000000000000000000000000000815260040161069d90610d90565b60405180910390fd5b8273ffffffffffffffffffffffffffffffffffffffff166106c6826104cf565b73ffffffffffffffffffffffffffffffffffffffff161461071c576040517f08c379a000000000000000000000000000000000000000000000000000000000815260040161071390610dfc565b60405180910390fd5b6001600260008573ffffffffffffffffffffffffffffffffffffffff1673ffffffffffffffffffffffffffffffffffffffff168152602001908152602001600020600082825461076c9190610e4b565b925050819055506001600260008473ffffffffffffffffffffffffffffffffffffffff1673ffffffffffffffffffffffffffffffffffffffff16815260200190815260200160002060008282546107c39190610e7f565b92505081905550816001600083815260200190815260200160002060006101000a81548173ffffffffffffffffffffffffffffffffffffffff021916908373ffffffffffffffffffffffffffffffffffffffff160217905550808273ffffffffffffffffffffffffffffffffffffffff168473ffffffffffffffffffffffffffffffffffffffff167fddf252ad1be2c89b69c2b068fc378daa952ba7f163c4a11628f55a4df523b3ef60405160405180910390a4505050565b6000806001600084815260200190815260200160002060009054906101000a900473ffffffffffffffffffffffffffffffffffffffff169050600073ffffffffffffffffffffffffffffffffffffffff168173ffffffffffffffffffffffffffffffffffffffff161415915050919050565b600080fd5b60007fffffffff0000000000000000000000000000000000000000000000000000000082169050919050565b610928816108f3565b811461093357600080fd5b50565b6000813590506109458161091f565b92915050565b600060208284031215610961576109606108ee565b5b600061096f84828501610936565b91505092915050565b60008115159050919050565b61098d81610978565b82525050565b60006020820190506109a86000830184610984565b92915050565b6000819050919050565b6109c1816109ae565b81146109cc57600080fd5b50565b6000813590506109de816109b8565b92915050565b6000602082840312156109fa576109f96108ee565b5b6000610a08848285016109cf565b91505092915050565b600073ffffffffffffffffffffffffffffffffffffffff82169050919050565b6000610a3c82610a11565b9050919050565b610a4c81610a31565b82525050565b6000602082019050610a676000830184610a43565b92915050565b610a7681610a31565b8114610a8157600080fd5b50565b600081359050610a9381610a6d565b92915050565b60008060408385031215610ab057610aaf6108ee565b5b6000610abe85828601610a84565b9250506020610acf858286016109cf565b9150509250929050565b600080600060608486031215610af257610af16108ee565b5b6000610b0086828701610a84565b9350506020610b1186828701610a84565b9250506040610b22868287016109cf565b9150509250925092565b600060208284031215610b4257610b416108ee565b5b6000610b5084828501610a84565b91505092915050565b610b62816109ae565b82525050565b6000602082019050610b7d6000830184610b59565b92915050565b600082825260208201905092915050565b7f417070726f76616c20746f207468652073616d65206164647265737300000000600082015250565b6000610bca601c83610b83565b9150610bd582610b94565b602082019050919050565b60006020820190508181036000830152610bf981610bbd565b9050919050565b7f4e6f7420616c6c6f770000000000000000000000000000000000000000000000600082015250565b6000610c36600983610b83565b9150610c4182610c00565b602082019050919050565b60006020820190508181036000830152610c6581610c29565b9050919050565b7f4552433732313a206e6f6e2d6578697374656e7420746f6b656e000000000000600082015250565b6000610ca2601a83610b83565b9150610cad82610c6c565b602082019050919050565b60006020820190508181036000830152610cd181610c95565b9050919050565b7f4f776e657220717565727920666f72207a65726f206164647265737300000000600082015250565b6000610d0e601c83610b83565b9150610d1982610cd8565b602082019050919050565b60006020820190508181036000830152610d3d81610d01565b9050919050565b7f5472616e7366657220746f20746865207a65726f206164647265737300000000600082015250565b6000610d7a601c83610b83565b9150610d8582610d44565b602082019050919050565b60006020820190508181036000830152610da981610d6d565b9050919050565b7f4164647265737320646f6573206e6f74206f776e2074686520746f6b656e0000600082015250565b6000610de6601e83610b83565b9150610df182610db0565b602082019050919050565b60006020820190508181036000830152610e1581610dd9565b9050919050565b7f4e487b7100000000000000000000000000000000000000000000000000000000600052601160045260246000fd5b6000610e56826109ae565b9150610e61836109ae565b925082821015610e7457610e73610e1c565b5b828203905092915050565b6000610e8a826109ae565b9150610e95836109ae565b9250827fffffffffffffffffffffffffffffffffffffffffffffffffffffffffffffffff03821115610eca57610ec9610e1c565b5b82820190509291505056fea26469706673582212203ac063b579d936e8b4cdedd879629f368355916609c0ffe8385e46eb0a4a531764736f6c634300080d0033",
  "immutableReferences": {},
  "source": "// SPDX-License-Identifier: MIT\npragma solidity >=0.8.0;\n\nimport \"./ERC165.sol\";\nimport \"./interfaces/IERC721.sol\";\n\ncontract ERC721 is ERC165, IERC721 {\n    mapping(uint256 => address) private _tokenOwner;\n    mapping(address => uint256) private _ownedTokensCount;\n    mapping(uint256 => address) private _tokenApprovals;\n\n    function balanceOf(address _owner) public view returns (uint256) {\n        require(_owner != address(0), \"Owner query for zero address\");\n\n        return _ownedTokensCount[_owner];\n    }\n\n    function ownerOf(uint256 _tokenId) public view returns (address) {\n        address owner = _tokenOwner[_tokenId];\n        require(owner != address(0), \"Owner query for zero address\");\n\n        return owner;\n    }\n\n    function _exists(uint256 tokenId) internal view returns (bool) {\n        address owner = _tokenOwner[tokenId];\n\n        return owner != address(0);\n    }\n\n    function _mint(address to, uint256 tokenId) internal virtual {\n        require(to != address(0), \"ERC721: mint to the null address\");\n        require(!_exists(tokenId), \"ERC721: token already minted\");\n\n        _tokenOwner[tokenId] = to;\n        _ownedTokensCount[to]++;\n\n        emit Transfer(address(0), to, tokenId);\n    }\n\n    function _transferFrom(\n        address _from,\n        address _to,\n        uint256 _tokenId\n    ) internal {\n        require(_to != address(0), \"Transfer to the zero address\");\n        require(ownerOf(_tokenId) == _from, \"Address does not own the token\");\n\n        _ownedTokensCount[_from] -= 1;\n        _ownedTokensCount[_to] += 1;\n        _tokenOwner[_tokenId] = _to;\n\n        emit Transfer(_from, _to, _tokenId);\n    }\n\n    function transferFrom(\n        address _from,\n        address _to,\n        uint256 _tokenId\n    ) external payable {\n        isApprovedOrOwner(msg.sender, _tokenId);\n\n        _transferFrom(_from, _to, _tokenId);\n    }\n\n    function approve(address _to, uint256 tokenId) external payable {\n        address owner = ownerOf(tokenId);\n\n        require(_to != owner, \"Approval to the same address\");\n        require(msg.sender == owner, \"Not allow\");\n\n        _tokenApprovals[tokenId] = _to;\n\n        emit Approval(owner, _to, tokenId);\n    }\n\n    function isApprovedOrOwner(address spender, uint256 tokenId)\n        public\n        view\n        returns (bool)\n    {\n        require(_exists(tokenId), \"ERC721: non-existent token\");\n\n        address owner = ownerOf(tokenId);\n        return spender == owner || getApproved(tokenId) == spender;\n    }\n\n    function getApproved(uint256 tokenId) public view returns (address) {}\n}\n",
  "sourcePath": "/Users/frank/Documents/Developer/nft-marketplace-starter-kit/src/contracts/ERC721.sol",
  "compiler": {
    "name": "solc",
    "version": "0.8.13+commit.abaa5c0e.Emscripten.clang"
  },
  "schemaVersion": "3.4.3",
  "updatedAt": "2022-05-04T18:21:04.242Z",
  "devdoc": {
    "kind": "dev",
    "methods": {},
    "version": 1
  },
  "userdoc": {
    "kind": "user",
    "methods": {},
    "version": 1
  }
}