{
  "contractName": "ERC721Enumerable",
  "abi": [
    {
      "anonymous": false,
      "inputs": [
        {
          "indexed": true,
          "internalType": "address",
          "name": "_owner",
          "type": "address"
        },
        {
          "indexed": true,
          "internalType": "address",
          "name": "_approved",
          "type": "address"
        },
        {
          "indexed": true,
          "internalType": "uint256",
          "name": "_tokenId",
          "type": "uint256"
        }
      ],
      "name": "Approval",
      "type": "event"
    },
    {
      "anonymous": false,
      "inputs": [
        {
          "indexed": true,
          "internalType": "address",
          "name": "_from",
          "type": "address"
        },
        {
          "indexed": true,
          "internalType": "address",
          "name": "_to",
          "type": "address"
        },
        {
          "indexed": true,
          "internalType": "uint256",
          "name": "_tokenId",
          "type": "uint256"
        }
      ],
      "name": "Transfer",
      "type": "event"
    },
    {
      "inputs": [
        {
          "internalType": "address",
          "name": "_to",
          "type": "address"
        },
        {
          "internalType": "uint256",
          "name": "tokenId",
          "type": "uint256"
        }
      ],
      "name": "approve",
      "outputs": [],
      "stateMutability": "payable",
      "type": "function"
    },
    {
      "inputs": [
        {
          "internalType": "address",
          "name": "_owner",
          "type": "address"
        }
      ],
      "name": "balanceOf",
      "outputs": [
        {
          "internalType": "uint256",
          "name": "",
          "type": "uint256"
        }
      ],
      "stateMutability": "view",
      "type": "function"
    },
    {
      "inputs": [
        {
          "internalType": "uint256",
          "name": "tokenId",
          "type": "uint256"
        }
      ],
      "name": "getApproved",
      "outputs": [
        {
          "internalType": "address",
          "name": "",
          "type": "address"
        }
      ],
      "stateMutability": "view",
      "type": "function"
    },
    {
      "inputs": [
        {
          "internalType": "address",
          "name": "spender",
          "type": "address"
        },
        {
          "internalType": "uint256",
          "name": "tokenId",
          "type": "uint256"
        }
      ],
      "name": "isApprovedOrOwner",
      "outputs": [
        {
          "internalType": "bool",
          "name": "",
          "type": "bool"
        }
      ],
      "stateMutability": "view",
      "type": "function"
    },
    {
      "inputs": [
        {
          "internalType": "uint256",
          "name": "_tokenId",
          "type": "uint256"
        }
      ],
      "name": "ownerOf",
      "outputs": [
        {
          "internalType": "address",
          "name": "",
          "type": "address"
        }
      ],
      "stateMutability": "view",
      "type": "function"
    },
    {
      "inputs": [
        {
          "internalType": "bytes4",
          "name": "interfaceId",
          "type": "bytes4"
        }
      ],
      "name": "supportsInterface",
      "outputs": [
        {
          "internalType": "bool",
          "name": "",
          "type": "bool"
        }
      ],
      "stateMutability": "view",
      "type": "function"
    },
    {
      "inputs": [
        {
          "internalType": "address",
          "name": "_from",
          "type": "address"
        },
        {
          "internalType": "address",
          "name": "_to",
          "type": "address"
        },
        {
          "internalType": "uint256",
          "name": "_tokenId",
          "type": "uint256"
        }
      ],
      "name": "transferFrom",
      "outputs": [],
      "stateMutability": "payable",
      "type": "function"
    },
    {
      "inputs": [
        {
          "internalType": "uint256",
          "name": "index",
          "type": "uint256"
        }
      ],
      "name": "tokenByIndex",
      "outputs": [
        {
          "internalType": "uint256",
          "name": "",
          "type": "uint256"
        }
      ],
      "stateMutability": "view",
      "type": "function"
    },
    {
      "inputs": [
        {
          "internalType": "address",
          "name": "owner",
          "type": "address"
        },
        {
          "internalType": "uint256",
          "name": "index",
          "type": "uint256"
        }
      ],
      "name": "tokenOfOwnerByIndex",
      "outputs": [
        {
          "internalType": "uint256",
          "name": "",
          "type": "uint256"
        }
      ],
      "stateMutability": "view",
      "type": "function"
    },
    {
      "inputs": [],
      "name": "totalSupply",
      "outputs": [
        {
          "internalType": "uint256",
          "name": "",
          "type": "uint256"
        }
      ],
      "stateMutability": "view",
      "type": "function"
    }
  ],
  "bytecode": "0x608060405234801561001057600080fd5b506100407f01ffc9a7a5cef8baa21ed3c5c0d7e23accb804b619e9333b597f47a0d84076e261004560201b60201c565b610196565b63ffffffff60e01b817bffffffffffffffffffffffffffffffffffffffffffffffffffffffff1916036100ad576040517f08c379a00000000000000000000000000000000000000000000000000000000081526004016100a490610176565b60405180910390fd5b6001600080837bffffffffffffffffffffffffffffffffffffffffffffffffffffffff19167bffffffffffffffffffffffffffffffffffffffffffffffffffffffff1916815260200190815260200160002060006101000a81548160ff02191690831515021790555050565b600082825260208201905092915050565b7f496e76616c696420696e74657266616365207265717565737400000000000000600082015250565b6000610160601983610119565b915061016b8261012a565b602082019050919050565b6000602082019050818103600083015261018f81610153565b9050919050565b61119a80620001a66000396000f3fe6080604052600436106100915760003560e01c80632f745c59116100595780632f745c5914610173578063430c2081146101b05780634f6ccce7146101ed5780636352211e1461022a57806370a082311461026757610091565b806301ffc9a714610096578063081812fc146100d3578063095ea7b31461011057806318160ddd1461012c57806323b872dd14610157575b600080fd5b3480156100a257600080fd5b506100bd60048036038101906100b89190610b3f565b6102a4565b6040516100ca9190610b87565b60405180910390f35b3480156100df57600080fd5b506100fa60048036038101906100f59190610bd8565b61030b565b6040516101079190610c46565b60405180910390f35b61012a60048036038101906101259190610c8d565b610312565b005b34801561013857600080fd5b506101416104ad565b60405161014e9190610cdc565b60405180910390f35b610171600480360381019061016c9190610cf7565b6104ba565b005b34801561017f57600080fd5b5061019a60048036038101906101959190610c8d565b6104d5565b6040516101a79190610cdc565b60405180910390f35b3480156101bc57600080fd5b506101d760048036038101906101d29190610c8d565b610585565b6040516101e49190610b87565b60405180910390f35b3480156101f957600080fd5b50610214600480360381019061020f9190610bd8565b610652565b6040516102219190610cdc565b60405180910390f35b34801561023657600080fd5b50610251600480360381019061024c9190610bd8565b6106c3565b60405161025e9190610c46565b60405180910390f35b34801561027357600080fd5b5061028e60048036038101906102899190610d4a565b610774565b60405161029b9190610cdc565b60405180910390f35b6000806000837bffffffffffffffffffffffffffffffffffffffffffffffffffffffff19167bffffffffffffffffffffffffffffffffffffffffffffffffffffffff1916815260200190815260200160002060009054906101000a900460ff169050919050565b6000919050565b600061031d826106c3565b90508073ffffffffffffffffffffffffffffffffffffffff168373ffffffffffffffffffffffffffffffffffffffff160361038d576040517f08c379a000000000000000000000000000000000000000000000000000000000815260040161038490610dd4565b60405180910390fd5b8073ffffffffffffffffffffffffffffffffffffffff163373ffffffffffffffffffffffffffffffffffffffff16146103fb576040517f08c379a00000000000000000000000000000000000000000000000000000000081526004016103f290610e40565b60405180910390fd5b826003600084815260200190815260200160002060006101000a81548173ffffffffffffffffffffffffffffffffffffffff021916908373ffffffffffffffffffffffffffffffffffffffff160217905550818373ffffffffffffffffffffffffffffffffffffffff168273ffffffffffffffffffffffffffffffffffffffff167f8c5be1e5ebec7d5bd14f71427d1e84f3dd0314c0f7b2291e5b200ac8c7c3b92560405160405180910390a4505050565b6000600480549050905090565b6104c43382610585565b506104d083838361082b565b505050565b60006104e083610774565b8210610521576040517f08c379a000000000000000000000000000000000000000000000000000000000815260040161051890610eac565b60405180910390fd5b600660008473ffffffffffffffffffffffffffffffffffffffff1673ffffffffffffffffffffffffffffffffffffffff168152602001908152602001600020828154811061057257610571610ecc565b5b9060005260206000200154905092915050565b600061059082610a70565b6105cf576040517f08c379a00000000000000000000000000000000000000000000000000000000081526004016105c690610f47565b60405180910390fd5b60006105da836106c3565b90508073ffffffffffffffffffffffffffffffffffffffff168473ffffffffffffffffffffffffffffffffffffffff16148061064957508373ffffffffffffffffffffffffffffffffffffffff166106318461030b565b73ffffffffffffffffffffffffffffffffffffffff16145b91505092915050565b600061065c6104ad565b821061069d576040517f08c379a000000000000000000000000000000000000000000000000000000000815260040161069490610eac565b60405180910390fd5b600482815481106106b1576106b0610ecc565b5b90600052602060002001549050919050565b6000806001600084815260200190815260200160002060009054906101000a900473ffffffffffffffffffffffffffffffffffffffff169050600073ffffffffffffffffffffffffffffffffffffffff168173ffffffffffffffffffffffffffffffffffffffff160361076b576040517f08c379a000000000000000000000000000000000000000000000000000000000815260040161076290610fb3565b60405180910390fd5b80915050919050565b60008073ffffffffffffffffffffffffffffffffffffffff168273ffffffffffffffffffffffffffffffffffffffff16036107e4576040517f08c379a00000000000000000000000000000000000000000000000000000000081526004016107db90610fb3565b60405180910390fd5b600260008373ffffffffffffffffffffffffffffffffffffffff1673ffffffffffffffffffffffffffffffffffffffff168152602001908152602001600020549050919050565b600073ffffffffffffffffffffffffffffffffffffffff168273ffffffffffffffffffffffffffffffffffffffff160361089a576040517f08c379a00000000000000000000000000000000000000000000000000000000081526004016108919061101f565b60405180910390fd5b8273ffffffffffffffffffffffffffffffffffffffff166108ba826106c3565b73ffffffffffffffffffffffffffffffffffffffff1614610910576040517f08c379a00000000000000000000000000000000000000000000000000000000081526004016109079061108b565b60405180910390fd5b6001600260008573ffffffffffffffffffffffffffffffffffffffff1673ffffffffffffffffffffffffffffffffffffffff168152602001908152602001600020600082825461096091906110da565b925050819055506001600260008473ffffffffffffffffffffffffffffffffffffffff1673ffffffffffffffffffffffffffffffffffffffff16815260200190815260200160002060008282546109b7919061110e565b92505081905550816001600083815260200190815260200160002060006101000a81548173ffffffffffffffffffffffffffffffffffffffff021916908373ffffffffffffffffffffffffffffffffffffffff160217905550808273ffffffffffffffffffffffffffffffffffffffff168473ffffffffffffffffffffffffffffffffffffffff167fddf252ad1be2c89b69c2b068fc378daa952ba7f163c4a11628f55a4df523b3ef60405160405180910390a4505050565b6000806001600084815260200190815260200160002060009054906101000a900473ffffffffffffffffffffffffffffffffffffffff169050600073ffffffffffffffffffffffffffffffffffffffff168173ffffffffffffffffffffffffffffffffffffffff161415915050919050565b600080fd5b60007fffffffff0000000000000000000000000000000000000000000000000000000082169050919050565b610b1c81610ae7565b8114610b2757600080fd5b50565b600081359050610b3981610b13565b92915050565b600060208284031215610b5557610b54610ae2565b5b6000610b6384828501610b2a565b91505092915050565b60008115159050919050565b610b8181610b6c565b82525050565b6000602082019050610b9c6000830184610b78565b92915050565b6000819050919050565b610bb581610ba2565b8114610bc057600080fd5b50565b600081359050610bd281610bac565b92915050565b600060208284031215610bee57610bed610ae2565b5b6000610bfc84828501610bc3565b91505092915050565b600073ffffffffffffffffffffffffffffffffffffffff82169050919050565b6000610c3082610c05565b9050919050565b610c4081610c25565b82525050565b6000602082019050610c5b6000830184610c37565b92915050565b610c6a81610c25565b8114610c7557600080fd5b50565b600081359050610c8781610c61565b92915050565b60008060408385031215610ca457610ca3610ae2565b5b6000610cb285828601610c78565b9250506020610cc385828601610bc3565b9150509250929050565b610cd681610ba2565b82525050565b6000602082019050610cf16000830184610ccd565b92915050565b600080600060608486031215610d1057610d0f610ae2565b5b6000610d1e86828701610c78565b9350506020610d2f86828701610c78565b9250506040610d4086828701610bc3565b9150509250925092565b600060208284031215610d6057610d5f610ae2565b5b6000610d6e84828501610c78565b91505092915050565b600082825260208201905092915050565b7f417070726f76616c20746f207468652073616d65206164647265737300000000600082015250565b6000610dbe601c83610d77565b9150610dc982610d88565b602082019050919050565b60006020820190508181036000830152610ded81610db1565b9050919050565b7f4e6f7420616c6c6f770000000000000000000000000000000000000000000000600082015250565b6000610e2a600983610d77565b9150610e3582610df4565b602082019050919050565b60006020820190508181036000830152610e5981610e1d565b9050919050565b7f496e646578206f7574206f662072616e67650000000000000000000000000000600082015250565b6000610e96601283610d77565b9150610ea182610e60565b602082019050919050565b60006020820190508181036000830152610ec581610e89565b9050919050565b7f4e487b7100000000000000000000000000000000000000000000000000000000600052603260045260246000fd5b7f4552433732313a206e6f6e2d6578697374656e7420746f6b656e000000000000600082015250565b6000610f31601a83610d77565b9150610f3c82610efb565b602082019050919050565b60006020820190508181036000830152610f6081610f24565b9050919050565b7f4f776e657220717565727920666f72207a65726f206164647265737300000000600082015250565b6000610f9d601c83610d77565b9150610fa882610f67565b602082019050919050565b60006020820190508181036000830152610fcc81610f90565b9050919050565b7f5472616e7366657220746f20746865207a65726f206164647265737300000000600082015250565b6000611009601c83610d77565b915061101482610fd3565b602082019050919050565b6000602082019050818103600083015261103881610ffc565b9050919050565b7f4164647265737320646f6573206e6f74206f776e2074686520746f6b656e0000600082015250565b6000611075601e83610d77565b91506110808261103f565b602082019050919050565b600060208201905081810360008301526110a481611068565b9050919050565b7f4e487b7100000000000000000000000000000000000000000000000000000000600052601160045260246000fd5b60006110e582610ba2565b91506110f083610ba2565b925082821015611103576111026110ab565b5b828203905092915050565b600061111982610ba2565b915061112483610ba2565b9250827fffffffffffffffffffffffffffffffffffffffffffffffffffffffffffffffff03821115611159576111586110ab565b5b82820190509291505056fea2646970667358221220b1b7f58737259842153d15051552a61f05f1b6b14e06f629e9646a83891ac0f264736f6c634300080d0033",
  "immutableReferences": {},
  "source": "// SPDX-License-Identifier: MIT\npragma solidity >=0.8.0;\n\nimport \"./ERC721.sol\";\n\ncontract ERC721Enumerable is ERC721 {\n    uint256[] private _allTokens;\n    mapping(uint256 => uint256) private _allTokensIndex;\n    mapping(address => uint256[]) private _ownedTokens;\n    mapping(uint256 => uint256) private _ownedTokensIndex;\n\n    function _mint(address to, uint256 tokenId) internal override(ERC721) {\n        super._mint(to, tokenId);\n\n        _addTokensToAllTokenEnumeration(tokenId);\n        _addTokensToOwnerEnumeration(to, tokenId);\n    }\n\n    function _addTokensToAllTokenEnumeration(uint256 tokenId) private {\n        _allTokensIndex[tokenId] = _allTokens.length;\n        _allTokens.push(tokenId);\n    }\n\n    function _addTokensToOwnerEnumeration(address to, uint256 tokenId) private {\n        _ownedTokensIndex[tokenId] = _ownedTokens[to].length;\n        _ownedTokens[to].push(tokenId);\n    }\n\n    function tokenByIndex(uint256 index) public view returns (uint256) {\n        require(index < totalSupply(), \"Index out of range\");\n\n        return _allTokens[index];\n    }\n\n    function tokenOfOwnerByIndex(address owner, uint256 index)\n        public\n        view\n        returns (uint256)\n    {\n        require(index < balanceOf(owner), \"Index out of range\");\n\n        return _ownedTokens[owner][index];\n    }\n\n    function totalSupply() public view returns (uint256) {\n        return _allTokens.length;\n    }\n}\n",
  "sourcePath": "/Users/frank/Documents/Developer/nft-marketplace-starter-kit/src/contracts/ERC721Enumerable.sol",
  "compiler": {
    "name": "solc",
    "version": "0.8.13+commit.abaa5c0e.Emscripten.clang"
  },
  "schemaVersion": "3.4.3",
  "updatedAt": "2022-05-04T18:21:04.249Z",
  "devdoc": {
    "kind": "dev",
    "methods": {},
    "version": 1
  },
  "userdoc": {
    "kind": "user",
    "methods": {},
    "version": 1
  }
}