{
  "contractName": "ERC721Connector",
  "abi": [
    {
      "inputs": [
        {
          "internalType": "string",
          "name": "name",
          "type": "string"
        },
        {
          "internalType": "string",
          "name": "symbol",
          "type": "string"
        }
      ],
      "stateMutability": "nonpayable",
      "type": "constructor"
    },
    {
      "anonymous": false,
      "inputs": [
        {
          "indexed": true,
          "internalType": "address",
          "name": "from",
          "type": "address"
        },
        {
          "indexed": true,
          "internalType": "address",
          "name": "to",
          "type": "address"
        },
        {
          "indexed": true,
          "internalType": "uint256",
          "name": "tokenId",
          "type": "uint256"
        }
      ],
      "name": "Transfer",
      "type": "event"
    },
    {
      "inputs": [
        {
          "internalType": "address",
          "name": "_owner",
          "type": "address"
        }
      ],
      "name": "balanceOf",
      "outputs": [
        {
          "internalType": "uint256",
          "name": "",
          "type": "uint256"
        }
      ],
      "stateMutability": "view",
      "type": "function"
    },
    {
      "inputs": [],
      "name": "name",
      "outputs": [
        {
          "internalType": "string",
          "name": "n",
          "type": "string"
        }
      ],
      "stateMutability": "view",
      "type": "function"
    },
    {
      "inputs": [
        {
          "internalType": "uint256",
          "name": "_tokenId",
          "type": "uint256"
        }
      ],
      "name": "ownerOf",
      "outputs": [
        {
          "internalType": "address",
          "name": "",
          "type": "address"
        }
      ],
      "stateMutability": "view",
      "type": "function"
    },
    {
      "inputs": [],
      "name": "symbol",
      "outputs": [
        {
          "internalType": "string",
          "name": "s",
          "type": "string"
        }
      ],
      "stateMutability": "view",
      "type": "function"
    },
    {
      "inputs": [
        {
          "internalType": "uint256",
          "name": "index",
          "type": "uint256"
        }
      ],
      "name": "tokenByIndex",
      "outputs": [
        {
          "internalType": "uint256",
          "name": "",
          "type": "uint256"
        }
      ],
      "stateMutability": "view",
      "type": "function"
    },
    {
      "inputs": [
        {
          "internalType": "address",
          "name": "owner",
          "type": "address"
        },
        {
          "internalType": "uint256",
          "name": "index",
          "type": "uint256"
        }
      ],
      "name": "tokenOfOwnerByIndex",
      "outputs": [
        {
          "internalType": "uint256",
          "name": "",
          "type": "uint256"
        }
      ],
      "stateMutability": "view",
      "type": "function"
    },
    {
      "inputs": [],
      "name": "totalSupply",
      "outputs": [
        {
          "internalType": "uint256",
          "name": "",
          "type": "uint256"
        }
      ],
      "stateMutability": "view",
      "type": "function"
    },
    {
      "inputs": [
        {
          "internalType": "address",
          "name": "_from",
          "type": "address"
        },
        {
          "internalType": "address",
          "name": "_to",
          "type": "address"
        },
        {
          "internalType": "uint256",
          "name": "_tokenId",
          "type": "uint256"
        }
      ],
      "name": "transferFrom",
      "outputs": [],
      "stateMutability": "nonpayable",
      "type": "function"
    }
  ],
  "bytecode": "0x60806040523480156200001157600080fd5b5060405162001150380380620011508339818101604052810190620000379190620002c2565b818181600090805190602001906200005192919062000075565b5080600190805190602001906200006a92919062000075565b5050505050620003ab565b828054620000839062000376565b90600052602060002090601f016020900481019282620000a75760008555620000f3565b82601f10620000c257805160ff1916838001178555620000f3565b82800160010185558215620000f3579182015b82811115620000f2578251825591602001919060010190620000d5565b5b50905062000102919062000106565b5090565b5b808211156200012157600081600090555060010162000107565b5090565b6000604051905090565b600080fd5b600080fd5b600080fd5b600080fd5b6000601f19601f8301169050919050565b7f4e487b7100000000000000000000000000000000000000000000000000000000600052604160045260246000fd5b6200018e8262000143565b810181811067ffffffffffffffff82111715620001b057620001af62000154565b5b80604052505050565b6000620001c562000125565b9050620001d3828262000183565b919050565b600067ffffffffffffffff821115620001f657620001f562000154565b5b620002018262000143565b9050602081019050919050565b60005b838110156200022e57808201518184015260208101905062000211565b838111156200023e576000848401525b50505050565b60006200025b6200025584620001d8565b620001b9565b9050828152602081018484840111156200027a57620002796200013e565b5b620002878482856200020e565b509392505050565b600082601f830112620002a757620002a662000139565b5b8151620002b984826020860162000244565b91505092915050565b60008060408385031215620002dc57620002db6200012f565b5b600083015167ffffffffffffffff811115620002fd57620002fc62000134565b5b6200030b858286016200028f565b925050602083015167ffffffffffffffff8111156200032f576200032e62000134565b5b6200033d858286016200028f565b9150509250929050565b7f4e487b7100000000000000000000000000000000000000000000000000000000600052602260045260246000fd5b600060028204905060018216806200038f57607f821691505b602082108103620003a557620003a462000347565b5b50919050565b610d9580620003bb6000396000f3fe608060405234801561001057600080fd5b50600436106100885760003560e01c80634f6ccce71161005b5780634f6ccce7146101155780636352211e1461014557806370a082311461017557806395d89b41146101a557610088565b806306fdde031461008d57806318160ddd146100ab57806323b872dd146100c95780632f745c59146100e5575b600080fd5b6100956101c3565b6040516100a2919061086b565b60405180910390f35b6100b3610255565b6040516100c091906108a6565b60405180910390f35b6100e360048036038101906100de9190610950565b610262565b005b6100ff60048036038101906100fa91906109a3565b610272565b60405161010c91906108a6565b60405180910390f35b61012f600480360381019061012a91906109e3565b610322565b60405161013c91906108a6565b60405180910390f35b61015f600480360381019061015a91906109e3565b610393565b60405161016c9190610a1f565b60405180910390f35b61018f600480360381019061018a9190610a3a565b610444565b60405161019c91906108a6565b60405180910390f35b6101ad6104fb565b6040516101ba919061086b565b60405180910390f35b6060600080546101d290610a96565b80601f01602080910402602001604051908101604052809291908181526020018280546101fe90610a96565b801561024b5780601f106102205761010080835404028352916020019161024b565b820191906000526020600020905b81548152906001019060200180831161022e57829003601f168201915b5050505050905090565b6000600580549050905090565b61026d83838361058d565b505050565b600061027d83610444565b82106102be576040517f08c379a00000000000000000000000000000000000000000000000000000000081526004016102b590610b13565b60405180910390fd5b600760008473ffffffffffffffffffffffffffffffffffffffff1673ffffffffffffffffffffffffffffffffffffffff168152602001908152602001600020828154811061030f5761030e610b33565b5b9060005260206000200154905092915050565b600061032c610255565b821061036d576040517f08c379a000000000000000000000000000000000000000000000000000000000815260040161036490610b13565b60405180910390fd5b6005828154811061038157610380610b33565b5b90600052602060002001549050919050565b6000806002600084815260200190815260200160002060009054906101000a900473ffffffffffffffffffffffffffffffffffffffff169050600073ffffffffffffffffffffffffffffffffffffffff168173ffffffffffffffffffffffffffffffffffffffff160361043b576040517f08c379a000000000000000000000000000000000000000000000000000000000815260040161043290610bae565b60405180910390fd5b80915050919050565b60008073ffffffffffffffffffffffffffffffffffffffff168273ffffffffffffffffffffffffffffffffffffffff16036104b4576040517f08c379a00000000000000000000000000000000000000000000000000000000081526004016104ab90610bae565b60405180910390fd5b600360008373ffffffffffffffffffffffffffffffffffffffff1673ffffffffffffffffffffffffffffffffffffffff168152602001908152602001600020549050919050565b60606001805461050a90610a96565b80601f016020809104026020016040519081016040528092919081815260200182805461053690610a96565b80156105835780601f1061055857610100808354040283529160200191610583565b820191906000526020600020905b81548152906001019060200180831161056657829003601f168201915b5050505050905090565b600073ffffffffffffffffffffffffffffffffffffffff168273ffffffffffffffffffffffffffffffffffffffff16036105fc576040517f08c379a00000000000000000000000000000000000000000000000000000000081526004016105f390610c1a565b60405180910390fd5b8273ffffffffffffffffffffffffffffffffffffffff1661061c82610393565b73ffffffffffffffffffffffffffffffffffffffff1614610672576040517f08c379a000000000000000000000000000000000000000000000000000000000815260040161066990610c86565b60405180910390fd5b6001600360008573ffffffffffffffffffffffffffffffffffffffff1673ffffffffffffffffffffffffffffffffffffffff16815260200190815260200160002060008282546106c29190610cd5565b925050819055506001600360008473ffffffffffffffffffffffffffffffffffffffff1673ffffffffffffffffffffffffffffffffffffffff16815260200190815260200160002060008282546107199190610d09565b92505081905550816002600083815260200190815260200160002060006101000a81548173ffffffffffffffffffffffffffffffffffffffff021916908373ffffffffffffffffffffffffffffffffffffffff160217905550808273ffffffffffffffffffffffffffffffffffffffff168473ffffffffffffffffffffffffffffffffffffffff167fddf252ad1be2c89b69c2b068fc378daa952ba7f163c4a11628f55a4df523b3ef60405160405180910390a4505050565b600081519050919050565b600082825260208201905092915050565b60005b8381101561080c5780820151818401526020810190506107f1565b8381111561081b576000848401525b50505050565b6000601f19601f8301169050919050565b600061083d826107d2565b61084781856107dd565b93506108578185602086016107ee565b61086081610821565b840191505092915050565b600060208201905081810360008301526108858184610832565b905092915050565b6000819050919050565b6108a08161088d565b82525050565b60006020820190506108bb6000830184610897565b92915050565b600080fd5b600073ffffffffffffffffffffffffffffffffffffffff82169050919050565b60006108f1826108c6565b9050919050565b610901816108e6565b811461090c57600080fd5b50565b60008135905061091e816108f8565b92915050565b61092d8161088d565b811461093857600080fd5b50565b60008135905061094a81610924565b92915050565b600080600060608486031215610969576109686108c1565b5b60006109778682870161090f565b93505060206109888682870161090f565b92505060406109998682870161093b565b9150509250925092565b600080604083850312156109ba576109b96108c1565b5b60006109c88582860161090f565b92505060206109d98582860161093b565b9150509250929050565b6000602082840312156109f9576109f86108c1565b5b6000610a078482850161093b565b91505092915050565b610a19816108e6565b82525050565b6000602082019050610a346000830184610a10565b92915050565b600060208284031215610a5057610a4f6108c1565b5b6000610a5e8482850161090f565b91505092915050565b7f4e487b7100000000000000000000000000000000000000000000000000000000600052602260045260246000fd5b60006002820490506001821680610aae57607f821691505b602082108103610ac157610ac0610a67565b5b50919050565b7f496e646578206f7574206f662072616e67650000000000000000000000000000600082015250565b6000610afd6012836107dd565b9150610b0882610ac7565b602082019050919050565b60006020820190508181036000830152610b2c81610af0565b9050919050565b7f4e487b7100000000000000000000000000000000000000000000000000000000600052603260045260246000fd5b7f4f776e657220717565727920666f72207a65726f206164647265737300000000600082015250565b6000610b98601c836107dd565b9150610ba382610b62565b602082019050919050565b60006020820190508181036000830152610bc781610b8b565b9050919050565b7f5472616e7366657220746f20746865207a65726f206164647265737300000000600082015250565b6000610c04601c836107dd565b9150610c0f82610bce565b602082019050919050565b60006020820190508181036000830152610c3381610bf7565b9050919050565b7f4164647265737320646f6573206e6f74206f776e2074686520746f6b656e0000600082015250565b6000610c70601e836107dd565b9150610c7b82610c3a565b602082019050919050565b60006020820190508181036000830152610c9f81610c63565b9050919050565b7f4e487b7100000000000000000000000000000000000000000000000000000000600052601160045260246000fd5b6000610ce08261088d565b9150610ceb8361088d565b925082821015610cfe57610cfd610ca6565b5b828203905092915050565b6000610d148261088d565b9150610d1f8361088d565b9250827fffffffffffffffffffffffffffffffffffffffffffffffffffffffffffffffff03821115610d5457610d53610ca6565b5b82820190509291505056fea264697066735822122034589b91d20e7f866f85c602a9312546a3a16989bd46b405331ab0685369d83464736f6c634300080d0033",
  "immutableReferences": {},
  "source": "// SPDX-License-Identifier: MIT\npragma solidity >=0.8.0;\n\nimport \"./ERC721Metadata.sol\";\nimport \"./ERC721Enumerable.sol\";\n\ncontract ERC721Connector is ERC721Metadata, ERC721Enumerable {\n    constructor(string memory name, string memory symbol)\n        ERC721Metadata(name, symbol)\n    {}\n}\n",
  "sourcePath": "/Users/frank/Documents/Developer/nft-marketplace-starter-kit/src/contracts/ERC721Connector.sol",
  "compiler": {
    "name": "solc",
    "version": "0.8.13+commit.abaa5c0e.Emscripten.clang"
  },
  "schemaVersion": "3.4.3",
  "updatedAt": "2022-05-04T11:58:18.833Z",
  "devdoc": {
    "kind": "dev",
    "methods": {},
    "version": 1
  },
  "userdoc": {
    "kind": "user",
    "methods": {},
    "version": 1
  }
}