{
  "contractName": "KryptoBirdz",
  "abi": [
    {
      "inputs": [],
      "stateMutability": "nonpayable",
      "type": "constructor"
    },
    {
      "anonymous": false,
      "inputs": [
        {
          "indexed": true,
          "internalType": "address",
          "name": "_owner",
          "type": "address"
        },
        {
          "indexed": true,
          "internalType": "address",
          "name": "_approved",
          "type": "address"
        },
        {
          "indexed": true,
          "internalType": "uint256",
          "name": "_tokenId",
          "type": "uint256"
        }
      ],
      "name": "Approval",
      "type": "event"
    },
    {
      "anonymous": false,
      "inputs": [
        {
          "indexed": true,
          "internalType": "address",
          "name": "_from",
          "type": "address"
        },
        {
          "indexed": true,
          "internalType": "address",
          "name": "_to",
          "type": "address"
        },
        {
          "indexed": true,
          "internalType": "uint256",
          "name": "_tokenId",
          "type": "uint256"
        }
      ],
      "name": "Transfer",
      "type": "event"
    },
    {
      "inputs": [
        {
          "internalType": "address",
          "name": "_to",
          "type": "address"
        },
        {
          "internalType": "uint256",
          "name": "tokenId",
          "type": "uint256"
        }
      ],
      "name": "approve",
      "outputs": [],
      "stateMutability": "payable",
      "type": "function",
      "payable": true
    },
    {
      "inputs": [
        {
          "internalType": "address",
          "name": "_owner",
          "type": "address"
        }
      ],
      "name": "balanceOf",
      "outputs": [
        {
          "internalType": "uint256",
          "name": "",
          "type": "uint256"
        }
      ],
      "stateMutability": "view",
      "type": "function",
      "constant": true
    },
    {
      "inputs": [
        {
          "internalType": "uint256",
          "name": "tokenId",
          "type": "uint256"
        }
      ],
      "name": "getApproved",
      "outputs": [
        {
          "internalType": "address",
          "name": "",
          "type": "address"
        }
      ],
      "stateMutability": "view",
      "type": "function",
      "constant": true
    },
    {
      "inputs": [
        {
          "internalType": "address",
          "name": "spender",
          "type": "address"
        },
        {
          "internalType": "uint256",
          "name": "tokenId",
          "type": "uint256"
        }
      ],
      "name": "isApprovedOrOwner",
      "outputs": [
        {
          "internalType": "bool",
          "name": "",
          "type": "bool"
        }
      ],
      "stateMutability": "view",
      "type": "function",
      "constant": true
    },
    {
      "inputs": [
        {
          "internalType": "uint256",
          "name": "",
          "type": "uint256"
        }
      ],
      "name": "kryptoBirdz",
      "outputs": [
        {
          "internalType": "string",
          "name": "",
          "type": "string"
        }
      ],
      "stateMutability": "view",
      "type": "function",
      "constant": true
    },
    {
      "inputs": [],
      "name": "name",
      "outputs": [
        {
          "internalType": "string",
          "name": "n",
          "type": "string"
        }
      ],
      "stateMutability": "view",
      "type": "function",
      "constant": true
    },
    {
      "inputs": [
        {
          "internalType": "uint256",
          "name": "_tokenId",
          "type": "uint256"
        }
      ],
      "name": "ownerOf",
      "outputs": [
        {
          "internalType": "address",
          "name": "",
          "type": "address"
        }
      ],
      "stateMutability": "view",
      "type": "function",
      "constant": true
    },
    {
      "inputs": [
        {
          "internalType": "bytes4",
          "name": "interfaceId",
          "type": "bytes4"
        }
      ],
      "name": "supportsInterface",
      "outputs": [
        {
          "internalType": "bool",
          "name": "",
          "type": "bool"
        }
      ],
      "stateMutability": "view",
      "type": "function",
      "constant": true
    },
    {
      "inputs": [],
      "name": "symbol",
      "outputs": [
        {
          "internalType": "string",
          "name": "s",
          "type": "string"
        }
      ],
      "stateMutability": "view",
      "type": "function",
      "constant": true
    },
    {
      "inputs": [
        {
          "internalType": "uint256",
          "name": "index",
          "type": "uint256"
        }
      ],
      "name": "tokenByIndex",
      "outputs": [
        {
          "internalType": "uint256",
          "name": "",
          "type": "uint256"
        }
      ],
      "stateMutability": "view",
      "type": "function",
      "constant": true
    },
    {
      "inputs": [
        {
          "internalType": "address",
          "name": "owner",
          "type": "address"
        },
        {
          "internalType": "uint256",
          "name": "index",
          "type": "uint256"
        }
      ],
      "name": "tokenOfOwnerByIndex",
      "outputs": [
        {
          "internalType": "uint256",
          "name": "",
          "type": "uint256"
        }
      ],
      "stateMutability": "view",
      "type": "function",
      "constant": true
    },
    {
      "inputs": [],
      "name": "totalSupply",
      "outputs": [
        {
          "internalType": "uint256",
          "name": "",
          "type": "uint256"
        }
      ],
      "stateMutability": "view",
      "type": "function",
      "constant": true
    },
    {
      "inputs": [
        {
          "internalType": "address",
          "name": "_from",
          "type": "address"
        },
        {
          "internalType": "address",
          "name": "_to",
          "type": "address"
        },
        {
          "internalType": "uint256",
          "name": "_tokenId",
          "type": "uint256"
        }
      ],
      "name": "transferFrom",
      "outputs": [],
      "stateMutability": "payable",
      "type": "function",
      "payable": true
    },
    {
      "inputs": [
        {
          "internalType": "string",
          "name": "_kryptoBird",
          "type": "string"
        }
      ],
      "name": "mint",
      "outputs": [],
      "stateMutability": "nonpayable",
      "type": "function"
    }
  ],
  "bytecode": "0x60806040523480156200001157600080fd5b506040518060400160405280600b81526020017f4b727970746f426972647a0000000000000000000000000000000000000000008152506040518060400160405280600681526020017f4b424952445300000000000000000000000000000000000000000000000000008152508181620000b17f01ffc9a7a5cef8baa21ed3c5c0d7e23accb804b619e9333b597f47a0d84076e26200024c60201b60201c565b8160019080519060200190620000c992919062000323565b508060029080519060200190620000e292919062000323565b50620001367f95d89b41e2f5f391a79ec54e9d87c79d6e777c63e32c28da95b4e9e4a79250ec7f06fdde0383f15d582d1a74511486c9ddf862a882fb7904b3d9fe9b8b8e58a796186200024c60201b60201c565b5050620001cf7fa2c446e29d119180eccb5ed633a2f18149af57574d7b1b5276bdd9221b8369677f23b872dd7302113369cda2901243429419bec145408fa8b352b3dd92b66c680b7f6352211e6566aa027e75ac9dbf2423197fbd9b82b9d981a3ab367d355866aa1c7f70a08231b98ef4ca268c9cc3f6b4590e4bfec28280db06bb5d45e689f2a360be1818186200024c60201b60201c565b620002447f2f745c59a57ba1667616e5a9707eeaa36ec97c283ee24190b75d9c8d14bcb2157f4f6ccce7c41aed90ec1f1887c4a821594c0f73758d8941d0ccaa2cde813b72987f18160ddd7f15c72528c2f94fd8dfe3c8d5aa26e2c50c7d81f4bc7bee8d4b793218186200024c60201b60201c565b5050620004ba565b63ffffffff60e01b817bffffffffffffffffffffffffffffffffffffffffffffffffffffffff191603620002b7576040517f08c379a0000000000000000000000000000000000000000000000000000000008152600401620002ae9062000434565b60405180910390fd5b6001600080837bffffffffffffffffffffffffffffffffffffffffffffffffffffffff19167bffffffffffffffffffffffffffffffffffffffffffffffffffffffff1916815260200190815260200160002060006101000a81548160ff02191690831515021790555050565b828054620003319062000485565b90600052602060002090601f016020900481019282620003555760008555620003a1565b82601f106200037057805160ff1916838001178555620003a1565b82800160010185558215620003a1579182015b82811115620003a057825182559160200191906001019062000383565b5b509050620003b09190620003b4565b5090565b5b80821115620003cf576000816000905550600101620003b5565b5090565b600082825260208201905092915050565b7f496e76616c696420696e74657266616365207265717565737400000000000000600082015250565b60006200041c601983620003d3565b91506200042982620003e4565b602082019050919050565b600060208201905081810360008301526200044f816200040d565b9050919050565b7f4e487b7100000000000000000000000000000000000000000000000000000000600052602260045260246000fd5b600060028204905060018216806200049e57607f821691505b602082108103620004b457620004b362000456565b5b50919050565b611cb180620004ca6000396000f3fe6080604052600436106100dd5760003560e01c8063430c20811161007f57806370a082311161005957806370a08231146102de57806393ab6e561461031b57806395d89b4114610358578063d85d3d2714610383576100dd565b8063430c2081146102275780634f6ccce7146102645780636352211e146102a1576100dd565b8063095ea7b3116100bb578063095ea7b31461018757806318160ddd146101a357806323b872dd146101ce5780632f745c59146101ea576100dd565b806301ffc9a7146100e257806306fdde031461011f578063081812fc1461014a575b600080fd5b3480156100ee57600080fd5b50610109600480360381019061010491906112b6565b6103ac565b60405161011691906112fe565b60405180910390f35b34801561012b57600080fd5b50610134610413565b60405161014191906113b2565b60405180910390f35b34801561015657600080fd5b50610171600480360381019061016c919061140a565b6104a5565b60405161017e9190611478565b60405180910390f35b6101a1600480360381019061019c91906114bf565b6104ac565b005b3480156101af57600080fd5b506101b8610647565b6040516101c5919061150e565b60405180910390f35b6101e860048036038101906101e39190611529565b610654565b005b3480156101f657600080fd5b50610211600480360381019061020c91906114bf565b61066f565b60405161021e919061150e565b60405180910390f35b34801561023357600080fd5b5061024e600480360381019061024991906114bf565b61071f565b60405161025b91906112fe565b60405180910390f35b34801561027057600080fd5b5061028b6004803603810190610286919061140a565b6107ec565b604051610298919061150e565b60405180910390f35b3480156102ad57600080fd5b506102c860048036038101906102c3919061140a565b61085d565b6040516102d59190611478565b60405180910390f35b3480156102ea57600080fd5b506103056004803603810190610300919061157c565b61090e565b604051610312919061150e565b60405180910390f35b34801561032757600080fd5b50610342600480360381019061033d919061140a565b6109c5565b60405161034f91906113b2565b60405180910390f35b34801561036457600080fd5b5061036d610a71565b60405161037a91906113b2565b60405180910390f35b34801561038f57600080fd5b506103aa60048036038101906103a5919061160e565b610b03565b005b6000806000837bffffffffffffffffffffffffffffffffffffffffffffffffffffffff19167bffffffffffffffffffffffffffffffffffffffffffffffffffffffff1916815260200190815260200160002060009054906101000a900460ff169050919050565b6060600180546104229061168a565b80601f016020809104026020016040519081016040528092919081815260200182805461044e9061168a565b801561049b5780601f106104705761010080835404028352916020019161049b565b820191906000526020600020905b81548152906001019060200180831161047e57829003601f168201915b5050505050905090565b6000919050565b60006104b78261085d565b90508073ffffffffffffffffffffffffffffffffffffffff168373ffffffffffffffffffffffffffffffffffffffff1603610527576040517f08c379a000000000000000000000000000000000000000000000000000000000815260040161051e90611707565b60405180910390fd5b8073ffffffffffffffffffffffffffffffffffffffff163373ffffffffffffffffffffffffffffffffffffffff1614610595576040517f08c379a000000000000000000000000000000000000000000000000000000000815260040161058c90611773565b60405180910390fd5b826005600084815260200190815260200160002060006101000a81548173ffffffffffffffffffffffffffffffffffffffff021916908373ffffffffffffffffffffffffffffffffffffffff160217905550818373ffffffffffffffffffffffffffffffffffffffff168273ffffffffffffffffffffffffffffffffffffffff167f8c5be1e5ebec7d5bd14f71427d1e84f3dd0314c0f7b2291e5b200ac8c7c3b92560405160405180910390a4505050565b6000600680549050905090565b61065e338261071f565b5061066a838383610c0d565b505050565b600061067a8361090e565b82106106bb576040517f08c379a00000000000000000000000000000000000000000000000000000000081526004016106b2906117df565b60405180910390fd5b600860008473ffffffffffffffffffffffffffffffffffffffff1673ffffffffffffffffffffffffffffffffffffffff168152602001908152602001600020828154811061070c5761070b6117ff565b5b9060005260206000200154905092915050565b600061072a82610e52565b610769576040517f08c379a00000000000000000000000000000000000000000000000000000000081526004016107609061187a565b60405180910390fd5b60006107748361085d565b90508073ffffffffffffffffffffffffffffffffffffffff168473ffffffffffffffffffffffffffffffffffffffff1614806107e357508373ffffffffffffffffffffffffffffffffffffffff166107cb846104a5565b73ffffffffffffffffffffffffffffffffffffffff16145b91505092915050565b60006107f6610647565b8210610837576040517f08c379a000000000000000000000000000000000000000000000000000000000815260040161082e906117df565b60405180910390fd5b6006828154811061084b5761084a6117ff565b5b90600052602060002001549050919050565b6000806003600084815260200190815260200160002060009054906101000a900473ffffffffffffffffffffffffffffffffffffffff169050600073ffffffffffffffffffffffffffffffffffffffff168173ffffffffffffffffffffffffffffffffffffffff1603610905576040517f08c379a00000000000000000000000000000000000000000000000000000000081526004016108fc906118e6565b60405180910390fd5b80915050919050565b60008073ffffffffffffffffffffffffffffffffffffffff168273ffffffffffffffffffffffffffffffffffffffff160361097e576040517f08c379a0000000000000000000000000000000000000000000000000000000008152600401610975906118e6565b60405180910390fd5b600460008373ffffffffffffffffffffffffffffffffffffffff1673ffffffffffffffffffffffffffffffffffffffff168152602001908152602001600020549050919050565b600a81815481106109d557600080fd5b9060005260206000200160009150905080546109f09061168a565b80601f0160208091040260200160405190810160405280929190818152602001828054610a1c9061168a565b8015610a695780601f10610a3e57610100808354040283529160200191610a69565b820191906000526020600020905b815481529060010190602001808311610a4c57829003601f168201915b505050505081565b606060028054610a809061168a565b80601f0160208091040260200160405190810160405280929190818152602001828054610aac9061168a565b8015610af95780601f10610ace57610100808354040283529160200191610af9565b820191906000526020600020905b815481529060010190602001808311610adc57829003601f168201915b5050505050905090565b600b8282604051610b15929190611945565b908152602001604051809103902060009054906101000a900460ff1615610b71576040517f08c379a0000000000000000000000000000000000000000000000000000000008152600401610b68906119aa565b60405180910390fd5b600a828290918060018154018082558091505060019003906000526020600020016000909192909192909192909192509190610bae9291906111b1565b5060006001600a80549050610bc391906119f9565b9050610bcf3382610ec4565b6001600b8484604051610be3929190611945565b908152602001604051809103902060006101000a81548160ff021916908315150217905550505050565b600073ffffffffffffffffffffffffffffffffffffffff168273ffffffffffffffffffffffffffffffffffffffff1603610c7c576040517f08c379a0000000000000000000000000000000000000000000000000000000008152600401610c7390611a79565b60405180910390fd5b8273ffffffffffffffffffffffffffffffffffffffff16610c9c8261085d565b73ffffffffffffffffffffffffffffffffffffffff1614610cf2576040517f08c379a0000000000000000000000000000000000000000000000000000000008152600401610ce990611ae5565b60405180910390fd5b6001600460008573ffffffffffffffffffffffffffffffffffffffff1673ffffffffffffffffffffffffffffffffffffffff1681526020019081526020016000206000828254610d4291906119f9565b925050819055506001600460008473ffffffffffffffffffffffffffffffffffffffff1673ffffffffffffffffffffffffffffffffffffffff1681526020019081526020016000206000828254610d999190611b05565b92505081905550816003600083815260200190815260200160002060006101000a81548173ffffffffffffffffffffffffffffffffffffffff021916908373ffffffffffffffffffffffffffffffffffffffff160217905550808273ffffffffffffffffffffffffffffffffffffffff168473ffffffffffffffffffffffffffffffffffffffff167fddf252ad1be2c89b69c2b068fc378daa952ba7f163c4a11628f55a4df523b3ef60405160405180910390a4505050565b6000806003600084815260200190815260200160002060009054906101000a900473ffffffffffffffffffffffffffffffffffffffff169050600073ffffffffffffffffffffffffffffffffffffffff168173ffffffffffffffffffffffffffffffffffffffff161415915050919050565b610ece8282610ee5565b610ed7816110a4565b610ee182826110ed565b5050565b600073ffffffffffffffffffffffffffffffffffffffff168273ffffffffffffffffffffffffffffffffffffffff1603610f54576040517f08c379a0000000000000000000000000000000000000000000000000000000008152600401610f4b90611ba7565b60405180910390fd5b610f5d81610e52565b15610f9d576040517f08c379a0000000000000000000000000000000000000000000000000000000008152600401610f9490611c13565b60405180910390fd5b816003600083815260200190815260200160002060006101000a81548173ffffffffffffffffffffffffffffffffffffffff021916908373ffffffffffffffffffffffffffffffffffffffff160217905550600460008373ffffffffffffffffffffffffffffffffffffffff1673ffffffffffffffffffffffffffffffffffffffff168152602001908152602001600020600081548092919061103f90611c33565b9190505550808273ffffffffffffffffffffffffffffffffffffffff16600073ffffffffffffffffffffffffffffffffffffffff167fddf252ad1be2c89b69c2b068fc378daa952ba7f163c4a11628f55a4df523b3ef60405160405180910390a45050565b6006805490506007600083815260200190815260200160002081905550600681908060018154018082558091505060019003906000526020600020016000909190919091505550565b600860008373ffffffffffffffffffffffffffffffffffffffff1673ffffffffffffffffffffffffffffffffffffffff168152602001908152602001600020805490506009600083815260200190815260200160002081905550600860008373ffffffffffffffffffffffffffffffffffffffff1673ffffffffffffffffffffffffffffffffffffffff1681526020019081526020016000208190806001815401808255809150506001900390600052602060002001600090919091909150555050565b8280546111bd9061168a565b90600052602060002090601f0160209004810192826111df5760008555611226565b82601f106111f857803560ff1916838001178555611226565b82800160010185558215611226579182015b8281111561122557823582559160200191906001019061120a565b5b5090506112339190611237565b5090565b5b80821115611250576000816000905550600101611238565b5090565b600080fd5b600080fd5b60007fffffffff0000000000000000000000000000000000000000000000000000000082169050919050565b6112938161125e565b811461129e57600080fd5b50565b6000813590506112b08161128a565b92915050565b6000602082840312156112cc576112cb611254565b5b60006112da848285016112a1565b91505092915050565b60008115159050919050565b6112f8816112e3565b82525050565b600060208201905061131360008301846112ef565b92915050565b600081519050919050565b600082825260208201905092915050565b60005b83811015611353578082015181840152602081019050611338565b83811115611362576000848401525b50505050565b6000601f19601f8301169050919050565b600061138482611319565b61138e8185611324565b935061139e818560208601611335565b6113a781611368565b840191505092915050565b600060208201905081810360008301526113cc8184611379565b905092915050565b6000819050919050565b6113e7816113d4565b81146113f257600080fd5b50565b600081359050611404816113de565b92915050565b6000602082840312156114205761141f611254565b5b600061142e848285016113f5565b91505092915050565b600073ffffffffffffffffffffffffffffffffffffffff82169050919050565b600061146282611437565b9050919050565b61147281611457565b82525050565b600060208201905061148d6000830184611469565b92915050565b61149c81611457565b81146114a757600080fd5b50565b6000813590506114b981611493565b92915050565b600080604083850312156114d6576114d5611254565b5b60006114e4858286016114aa565b92505060206114f5858286016113f5565b9150509250929050565b611508816113d4565b82525050565b600060208201905061152360008301846114ff565b92915050565b60008060006060848603121561154257611541611254565b5b6000611550868287016114aa565b9350506020611561868287016114aa565b9250506040611572868287016113f5565b9150509250925092565b60006020828403121561159257611591611254565b5b60006115a0848285016114aa565b91505092915050565b600080fd5b600080fd5b600080fd5b60008083601f8401126115ce576115cd6115a9565b5b8235905067ffffffffffffffff8111156115eb576115ea6115ae565b5b602083019150836001820283011115611607576116066115b3565b5b9250929050565b6000806020838503121561162557611624611254565b5b600083013567ffffffffffffffff81111561164357611642611259565b5b61164f858286016115b8565b92509250509250929050565b7f4e487b7100000000000000000000000000000000000000000000000000000000600052602260045260246000fd5b600060028204905060018216806116a257607f821691505b6020821081036116b5576116b461165b565b5b50919050565b7f417070726f76616c20746f207468652073616d65206164647265737300000000600082015250565b60006116f1601c83611324565b91506116fc826116bb565b602082019050919050565b60006020820190508181036000830152611720816116e4565b9050919050565b7f4e6f7420616c6c6f770000000000000000000000000000000000000000000000600082015250565b600061175d600983611324565b915061176882611727565b602082019050919050565b6000602082019050818103600083015261178c81611750565b9050919050565b7f496e646578206f7574206f662072616e67650000000000000000000000000000600082015250565b60006117c9601283611324565b91506117d482611793565b602082019050919050565b600060208201905081810360008301526117f8816117bc565b9050919050565b7f4e487b7100000000000000000000000000000000000000000000000000000000600052603260045260246000fd5b7f4552433732313a206e6f6e2d6578697374656e7420746f6b656e000000000000600082015250565b6000611864601a83611324565b915061186f8261182e565b602082019050919050565b6000602082019050818103600083015261189381611857565b9050919050565b7f4f776e657220717565727920666f72207a65726f206164647265737300000000600082015250565b60006118d0601c83611324565b91506118db8261189a565b602082019050919050565b600060208201905081810360008301526118ff816118c3565b9050919050565b600081905092915050565b82818337600083830152505050565b600061192c8385611906565b9350611939838584611911565b82840190509392505050565b6000611952828486611920565b91508190509392505050565b7f4572726f72202d204b4249524420616c72656164792065786973747300000000600082015250565b6000611994601c83611324565b915061199f8261195e565b602082019050919050565b600060208201905081810360008301526119c381611987565b9050919050565b7f4e487b7100000000000000000000000000000000000000000000000000000000600052601160045260246000fd5b6000611a04826113d4565b9150611a0f836113d4565b925082821015611a2257611a216119ca565b5b828203905092915050565b7f5472616e7366657220746f20746865207a65726f206164647265737300000000600082015250565b6000611a63601c83611324565b9150611a6e82611a2d565b602082019050919050565b60006020820190508181036000830152611a9281611a56565b9050919050565b7f4164647265737320646f6573206e6f74206f776e2074686520746f6b656e0000600082015250565b6000611acf601e83611324565b9150611ada82611a99565b602082019050919050565b60006020820190508181036000830152611afe81611ac2565b9050919050565b6000611b10826113d4565b9150611b1b836113d4565b9250827fffffffffffffffffffffffffffffffffffffffffffffffffffffffffffffffff03821115611b5057611b4f6119ca565b5b828201905092915050565b7f4552433732313a206d696e7420746f20746865206e756c6c2061646472657373600082015250565b6000611b91602083611324565b9150611b9c82611b5b565b602082019050919050565b60006020820190508181036000830152611bc081611b84565b9050919050565b7f4552433732313a20746f6b656e20616c7265616479206d696e74656400000000600082015250565b6000611bfd601c83611324565b9150611c0882611bc7565b602082019050919050565b60006020820190508181036000830152611c2c81611bf0565b9050919050565b6000611c3e826113d4565b91507fffffffffffffffffffffffffffffffffffffffffffffffffffffffffffffffff8203611c7057611c6f6119ca565b5b60018201905091905056fea26469706673582212204a92c69c7a46cf57e6177283d87eb97c6af15ce7bdc78835e918bad1aa827d5164736f6c634300080d0033",
  "immutableReferences": {},
  "source": "// SPDX-License-Identifier: MIT\npragma solidity >=0.8.0;\n\nimport \"./ERC721Connector.sol\";\n\ncontract KryptoBirdz is ERC721Connector {\n    string[] public kryptoBirdz;\n    mapping(string => bool) private _kryptoBirdzExists;\n\n    constructor() ERC721Connector(\"KryptoBirdz\", \"KBIRDS\") {}\n\n    function mint(string calldata _kryptoBird) public {\n        require(\n            !_kryptoBirdzExists[_kryptoBird],\n            \"Error - KBIRD already exists\"\n        );\n\n        kryptoBirdz.push(_kryptoBird);\n        uint256 _id = kryptoBirdz.length - 1;\n\n        _mint(msg.sender, _id);\n        _kryptoBirdzExists[_kryptoBird] = true;\n    }\n}\n",
  "sourcePath": "/Users/frank/Documents/Developer/nft-marketplace-starter-kit/src/contracts/KryptoBirdz.sol",
  "compiler": {
    "name": "solc",
    "version": "0.8.13+commit.abaa5c0e.Emscripten.clang"
  },
  "schemaVersion": "3.4.3",
  "updatedAt": "2022-05-04T18:48:07.806Z",
  "networkType": "ethereum",
  "devdoc": {
    "kind": "dev",
    "methods": {},
    "version": 1
  },
  "userdoc": {
    "kind": "user",
    "methods": {},
    "version": 1
  }
}