{
  "contractName": "KryptoBirdz",
  "abi": [
    {
      "inputs": [],
      "stateMutability": "nonpayable",
      "type": "constructor"
    },
    {
      "anonymous": false,
      "inputs": [
        {
          "indexed": true,
          "internalType": "address",
          "name": "from",
          "type": "address"
        },
        {
          "indexed": true,
          "internalType": "address",
          "name": "to",
          "type": "address"
        },
        {
          "indexed": true,
          "internalType": "uint256",
          "name": "tokenId",
          "type": "uint256"
        }
      ],
      "name": "Transfer",
      "type": "event"
    },
    {
      "inputs": [
        {
          "internalType": "address",
          "name": "_owner",
          "type": "address"
        }
      ],
      "name": "balanceOf",
      "outputs": [
        {
          "internalType": "uint256",
          "name": "",
          "type": "uint256"
        }
      ],
      "stateMutability": "view",
      "type": "function",
      "constant": true
    },
    {
      "inputs": [
        {
          "internalType": "uint256",
          "name": "",
          "type": "uint256"
        }
      ],
      "name": "kryptoBirdz",
      "outputs": [
        {
          "internalType": "string",
          "name": "",
          "type": "string"
        }
      ],
      "stateMutability": "view",
      "type": "function",
      "constant": true
    },
    {
      "inputs": [],
      "name": "name",
      "outputs": [
        {
          "internalType": "string",
          "name": "n",
          "type": "string"
        }
      ],
      "stateMutability": "view",
      "type": "function",
      "constant": true
    },
    {
      "inputs": [
        {
          "internalType": "uint256",
          "name": "_tokenId",
          "type": "uint256"
        }
      ],
      "name": "ownerOf",
      "outputs": [
        {
          "internalType": "address",
          "name": "",
          "type": "address"
        }
      ],
      "stateMutability": "view",
      "type": "function",
      "constant": true
    },
    {
      "inputs": [],
      "name": "symbol",
      "outputs": [
        {
          "internalType": "string",
          "name": "s",
          "type": "string"
        }
      ],
      "stateMutability": "view",
      "type": "function",
      "constant": true
    },
    {
      "inputs": [
        {
          "internalType": "string",
          "name": "_kryptoBird",
          "type": "string"
        }
      ],
      "name": "mint",
      "outputs": [],
      "stateMutability": "nonpayable",
      "type": "function"
    }
  ],
  "bytecode": "0x60806040523480156200001157600080fd5b506040518060400160405280600b81526020017f4b727970746f426972647a0000000000000000000000000000000000000000008152506040518060400160405280600681526020017f4b424952445300000000000000000000000000000000000000000000000000008152508181816000908051906020019062000098929190620000bc565b508060019080519060200190620000b1929190620000bc565b5050505050620001d0565b828054620000ca906200019b565b90600052602060002090601f016020900481019282620000ee57600085556200013a565b82601f106200010957805160ff19168380011785556200013a565b828001600101855582156200013a579182015b82811115620001395782518255916020019190600101906200011c565b5b5090506200014991906200014d565b5090565b5b80821115620001685760008160009055506001016200014e565b5090565b7f4e487b7100000000000000000000000000000000000000000000000000000000600052602260045260246000fd5b60006002820490506001821680620001b457607f821691505b602082108103620001ca57620001c96200016c565b5b50919050565b610e6780620001e06000396000f3fe608060405234801561001057600080fd5b50600436106100625760003560e01c806306fdde03146100675780636352211e1461008557806370a08231146100b557806393ab6e56146100e557806395d89b4114610115578063d85d3d2714610133575b600080fd5b61006f61014f565b60405161007c91906108fe565b60405180910390f35b61009f600480360381019061009a9190610960565b6101e1565b6040516100ac91906109ce565b60405180910390f35b6100cf60048036038101906100ca9190610a15565b610292565b6040516100dc9190610a51565b60405180910390f35b6100ff60048036038101906100fa9190610960565b610349565b60405161010c91906108fe565b60405180910390f35b61011d6103f5565b60405161012a91906108fe565b60405180910390f35b61014d60048036038101906101489190610ad1565b610487565b005b60606000805461015e90610b4d565b80601f016020809104026020016040519081016040528092919081815260200182805461018a90610b4d565b80156101d75780601f106101ac576101008083540402835291602001916101d7565b820191906000526020600020905b8154815290600101906020018083116101ba57829003601f168201915b5050505050905090565b6000806002600084815260200190815260200160002060009054906101000a900473ffffffffffffffffffffffffffffffffffffffff169050600073ffffffffffffffffffffffffffffffffffffffff168173ffffffffffffffffffffffffffffffffffffffff1603610289576040517f08c379a000000000000000000000000000000000000000000000000000000000815260040161028090610bca565b60405180910390fd5b80915050919050565b60008073ffffffffffffffffffffffffffffffffffffffff168273ffffffffffffffffffffffffffffffffffffffff1603610302576040517f08c379a00000000000000000000000000000000000000000000000000000000081526004016102f990610bca565b60405180910390fd5b600360008373ffffffffffffffffffffffffffffffffffffffff1673ffffffffffffffffffffffffffffffffffffffff168152602001908152602001600020549050919050565b6004818154811061035957600080fd5b90600052602060002001600091509050805461037490610b4d565b80601f01602080910402602001604051908101604052809291908181526020018280546103a090610b4d565b80156103ed5780601f106103c2576101008083540402835291602001916103ed565b820191906000526020600020905b8154815290600101906020018083116103d057829003601f168201915b505050505081565b60606001805461040490610b4d565b80601f016020809104026020016040519081016040528092919081815260200182805461043090610b4d565b801561047d5780601f106104525761010080835404028352916020019161047d565b820191906000526020600020905b81548152906001019060200180831161046057829003601f168201915b5050505050905090565b60058282604051610499929190610c29565b908152602001604051809103902060009054906101000a900460ff16156104f5576040517f08c379a00000000000000000000000000000000000000000000000000000000081526004016104ec90610c8e565b60405180910390fd5b60048282909180600181540180825580915050600190039060005260206000200160009091929091929091929091925091906105329291906107c2565b50600060016004805490506105479190610cdd565b90506105533382610591565b600160058484604051610567929190610c29565b908152602001604051809103902060006101000a81548160ff021916908315150217905550505050565b600073ffffffffffffffffffffffffffffffffffffffff168273ffffffffffffffffffffffffffffffffffffffff1603610600576040517f08c379a00000000000000000000000000000000000000000000000000000000081526004016105f790610d5d565b60405180910390fd5b61060981610750565b15610649576040517f08c379a000000000000000000000000000000000000000000000000000000000815260040161064090610dc9565b60405180910390fd5b816002600083815260200190815260200160002060006101000a81548173ffffffffffffffffffffffffffffffffffffffff021916908373ffffffffffffffffffffffffffffffffffffffff160217905550600360008373ffffffffffffffffffffffffffffffffffffffff1673ffffffffffffffffffffffffffffffffffffffff16815260200190815260200160002060008154809291906106eb90610de9565b9190505550808273ffffffffffffffffffffffffffffffffffffffff16600073ffffffffffffffffffffffffffffffffffffffff167fddf252ad1be2c89b69c2b068fc378daa952ba7f163c4a11628f55a4df523b3ef60405160405180910390a45050565b6000806002600084815260200190815260200160002060009054906101000a900473ffffffffffffffffffffffffffffffffffffffff169050600073ffffffffffffffffffffffffffffffffffffffff168173ffffffffffffffffffffffffffffffffffffffff161415915050919050565b8280546107ce90610b4d565b90600052602060002090601f0160209004810192826107f05760008555610837565b82601f1061080957803560ff1916838001178555610837565b82800160010185558215610837579182015b8281111561083657823582559160200191906001019061081b565b5b5090506108449190610848565b5090565b5b80821115610861576000816000905550600101610849565b5090565b600081519050919050565b600082825260208201905092915050565b60005b8381101561089f578082015181840152602081019050610884565b838111156108ae576000848401525b50505050565b6000601f19601f8301169050919050565b60006108d082610865565b6108da8185610870565b93506108ea818560208601610881565b6108f3816108b4565b840191505092915050565b6000602082019050818103600083015261091881846108c5565b905092915050565b600080fd5b600080fd5b6000819050919050565b61093d8161092a565b811461094857600080fd5b50565b60008135905061095a81610934565b92915050565b60006020828403121561097657610975610920565b5b60006109848482850161094b565b91505092915050565b600073ffffffffffffffffffffffffffffffffffffffff82169050919050565b60006109b88261098d565b9050919050565b6109c8816109ad565b82525050565b60006020820190506109e360008301846109bf565b92915050565b6109f2816109ad565b81146109fd57600080fd5b50565b600081359050610a0f816109e9565b92915050565b600060208284031215610a2b57610a2a610920565b5b6000610a3984828501610a00565b91505092915050565b610a4b8161092a565b82525050565b6000602082019050610a666000830184610a42565b92915050565b600080fd5b600080fd5b600080fd5b60008083601f840112610a9157610a90610a6c565b5b8235905067ffffffffffffffff811115610aae57610aad610a71565b5b602083019150836001820283011115610aca57610ac9610a76565b5b9250929050565b60008060208385031215610ae857610ae7610920565b5b600083013567ffffffffffffffff811115610b0657610b05610925565b5b610b1285828601610a7b565b92509250509250929050565b7f4e487b7100000000000000000000000000000000000000000000000000000000600052602260045260246000fd5b60006002820490506001821680610b6557607f821691505b602082108103610b7857610b77610b1e565b5b50919050565b7f4f776e657220717565727920666f72207a65726f206164647265737300000000600082015250565b6000610bb4601c83610870565b9150610bbf82610b7e565b602082019050919050565b60006020820190508181036000830152610be381610ba7565b9050919050565b600081905092915050565b82818337600083830152505050565b6000610c108385610bea565b9350610c1d838584610bf5565b82840190509392505050565b6000610c36828486610c04565b91508190509392505050565b7f4572726f72202d204b4249524420616c72656164792065786973747300000000600082015250565b6000610c78601c83610870565b9150610c8382610c42565b602082019050919050565b60006020820190508181036000830152610ca781610c6b565b9050919050565b7f4e487b7100000000000000000000000000000000000000000000000000000000600052601160045260246000fd5b6000610ce88261092a565b9150610cf38361092a565b925082821015610d0657610d05610cae565b5b828203905092915050565b7f4552433732313a206d696e7420746f20746865206e756c6c2061646472657373600082015250565b6000610d47602083610870565b9150610d5282610d11565b602082019050919050565b60006020820190508181036000830152610d7681610d3a565b9050919050565b7f4552433732313a20746f6b656e20616c7265616479206d696e74656400000000600082015250565b6000610db3601c83610870565b9150610dbe82610d7d565b602082019050919050565b60006020820190508181036000830152610de281610da6565b9050919050565b6000610df48261092a565b91507fffffffffffffffffffffffffffffffffffffffffffffffffffffffffffffffff8203610e2657610e25610cae565b5b60018201905091905056fea2646970667358221220c01869b89d9e5fa6dc414311c038e04d85232b87ca71dc6625d7a3c9e28bf55564736f6c634300080d0033",
  "immutableReferences": {},
  "source": "// SPDX-License-Identifier: MIT\npragma solidity >=0.8.0;\n\nimport \"./ERC721Connector.sol\";\n\ncontract KryptoBirdz is ERC721Connector {\n    string[] public kryptoBirdz;\n    mapping(string => bool) private _kryptoBirdzExists;\n\n    constructor() ERC721Connector(\"KryptoBirdz\", \"KBIRDS\") {}\n\n    function mint(string calldata _kryptoBird) public {\n        require(\n            !_kryptoBirdzExists[_kryptoBird],\n            \"Error - KBIRD already exists\"\n        );\n\n        kryptoBirdz.push(_kryptoBird);\n        uint256 _id = kryptoBirdz.length - 1;\n\n        _mint(msg.sender, _id);\n        _kryptoBirdzExists[_kryptoBird] = true;\n    }\n}\n",
  "sourcePath": "/Users/frank/Documents/Developer/nft-marketplace-starter-kit/src/contracts/KryptoBirdz.sol",
  "compiler": {
    "name": "solc",
    "version": "0.8.13+commit.abaa5c0e.Emscripten.clang"
  },
  "schemaVersion": "3.4.3",
  "updatedAt": "2022-05-03T19:26:41.754Z",
  "networkType": "ethereum",
  "devdoc": {
    "kind": "dev",
    "methods": {},
    "version": 1
  },
  "userdoc": {
    "kind": "user",
    "methods": {},
    "version": 1
  }
}