{
  "contractName": "KryptoBirdz",
  "abi": [
    {
      "inputs": [],
      "stateMutability": "nonpayable",
      "type": "constructor"
    },
    {
      "anonymous": false,
      "inputs": [
        {
          "indexed": true,
          "internalType": "address",
          "name": "_owner",
          "type": "address"
        },
        {
          "indexed": true,
          "internalType": "address",
          "name": "_approved",
          "type": "address"
        },
        {
          "indexed": true,
          "internalType": "uint256",
          "name": "_tokenId",
          "type": "uint256"
        }
      ],
      "name": "Approval",
      "type": "event"
    },
    {
      "anonymous": false,
      "inputs": [
        {
          "indexed": true,
          "internalType": "address",
          "name": "_from",
          "type": "address"
        },
        {
          "indexed": true,
          "internalType": "address",
          "name": "_to",
          "type": "address"
        },
        {
          "indexed": true,
          "internalType": "uint256",
          "name": "_tokenId",
          "type": "uint256"
        }
      ],
      "name": "Transfer",
      "type": "event"
    },
    {
      "inputs": [
        {
          "internalType": "address",
          "name": "_to",
          "type": "address"
        },
        {
          "internalType": "uint256",
          "name": "tokenId",
          "type": "uint256"
        }
      ],
      "name": "approve",
      "outputs": [],
      "stateMutability": "payable",
      "type": "function",
      "payable": true
    },
    {
      "inputs": [
        {
          "internalType": "address",
          "name": "_owner",
          "type": "address"
        }
      ],
      "name": "balanceOf",
      "outputs": [
        {
          "internalType": "uint256",
          "name": "",
          "type": "uint256"
        }
      ],
      "stateMutability": "view",
      "type": "function",
      "constant": true
    },
    {
      "inputs": [
        {
          "internalType": "uint256",
          "name": "tokenId",
          "type": "uint256"
        }
      ],
      "name": "getApproved",
      "outputs": [
        {
          "internalType": "address",
          "name": "",
          "type": "address"
        }
      ],
      "stateMutability": "view",
      "type": "function",
      "constant": true
    },
    {
      "inputs": [
        {
          "internalType": "address",
          "name": "spender",
          "type": "address"
        },
        {
          "internalType": "uint256",
          "name": "tokenId",
          "type": "uint256"
        }
      ],
      "name": "isApprovedOrOwner",
      "outputs": [
        {
          "internalType": "bool",
          "name": "",
          "type": "bool"
        }
      ],
      "stateMutability": "view",
      "type": "function",
      "constant": true
    },
    {
      "inputs": [
        {
          "internalType": "uint256",
          "name": "",
          "type": "uint256"
        }
      ],
      "name": "kryptoBirdz",
      "outputs": [
        {
          "internalType": "string",
          "name": "",
          "type": "string"
        }
      ],
      "stateMutability": "view",
      "type": "function",
      "constant": true
    },
    {
      "inputs": [],
      "name": "name",
      "outputs": [
        {
          "internalType": "string",
          "name": "n",
          "type": "string"
        }
      ],
      "stateMutability": "view",
      "type": "function",
      "constant": true
    },
    {
      "inputs": [
        {
          "internalType": "uint256",
          "name": "_tokenId",
          "type": "uint256"
        }
      ],
      "name": "ownerOf",
      "outputs": [
        {
          "internalType": "address",
          "name": "",
          "type": "address"
        }
      ],
      "stateMutability": "view",
      "type": "function",
      "constant": true
    },
    {
      "inputs": [
        {
          "internalType": "bytes4",
          "name": "interfaceId",
          "type": "bytes4"
        }
      ],
      "name": "supportsInterface",
      "outputs": [
        {
          "internalType": "bool",
          "name": "",
          "type": "bool"
        }
      ],
      "stateMutability": "view",
      "type": "function",
      "constant": true
    },
    {
      "inputs": [],
      "name": "symbol",
      "outputs": [
        {
          "internalType": "string",
          "name": "s",
          "type": "string"
        }
      ],
      "stateMutability": "view",
      "type": "function",
      "constant": true
    },
    {
      "inputs": [
        {
          "internalType": "uint256",
          "name": "index",
          "type": "uint256"
        }
      ],
      "name": "tokenByIndex",
      "outputs": [
        {
          "internalType": "uint256",
          "name": "",
          "type": "uint256"
        }
      ],
      "stateMutability": "view",
      "type": "function",
      "constant": true
    },
    {
      "inputs": [
        {
          "internalType": "address",
          "name": "owner",
          "type": "address"
        },
        {
          "internalType": "uint256",
          "name": "index",
          "type": "uint256"
        }
      ],
      "name": "tokenOfOwnerByIndex",
      "outputs": [
        {
          "internalType": "uint256",
          "name": "",
          "type": "uint256"
        }
      ],
      "stateMutability": "view",
      "type": "function",
      "constant": true
    },
    {
      "inputs": [],
      "name": "totalSupply",
      "outputs": [
        {
          "internalType": "uint256",
          "name": "",
          "type": "uint256"
        }
      ],
      "stateMutability": "view",
      "type": "function",
      "constant": true
    },
    {
      "inputs": [
        {
          "internalType": "address",
          "name": "_from",
          "type": "address"
        },
        {
          "internalType": "address",
          "name": "_to",
          "type": "address"
        },
        {
          "internalType": "uint256",
          "name": "_tokenId",
          "type": "uint256"
        }
      ],
      "name": "transferFrom",
      "outputs": [],
      "stateMutability": "payable",
      "type": "function",
      "payable": true
    },
    {
      "inputs": [
        {
          "internalType": "string",
          "name": "_kryptoBird",
          "type": "string"
        }
      ],
      "name": "mint",
      "outputs": [],
      "stateMutability": "nonpayable",
      "type": "function"
    }
  ],
  "bytecode": "0x60806040523480156200001157600080fd5b506040518060400160405280600b81526020017f4b727970746f426972647a0000000000000000000000000000000000000000008152506040518060400160405280600681526020017f4b424952445300000000000000000000000000000000000000000000000000008152508181816000908051906020019062000098929190620001c5565b508060019080519060200190620000b1929190620001c5565b505050620000e57f01ffc9a7a5cef8baa21ed3c5c0d7e23accb804b619e9333b597f47a0d84076e2620000ed60201b60201c565b50506200035c565b63ffffffff60e01b817bffffffffffffffffffffffffffffffffffffffffffffffffffffffff19160362000158576040517f08c379a00000000000000000000000000000000000000000000000000000000081526004016200014f90620002d6565b60405180910390fd5b600160026000837bffffffffffffffffffffffffffffffffffffffffffffffffffffffff19167bffffffffffffffffffffffffffffffffffffffffffffffffffffffff1916815260200190815260200160002060006101000a81548160ff02191690831515021790555050565b828054620001d39062000327565b90600052602060002090601f016020900481019282620001f7576000855562000243565b82601f106200021257805160ff191683800117855562000243565b8280016001018555821562000243579182015b828111156200024257825182559160200191906001019062000225565b5b50905062000252919062000256565b5090565b5b808211156200027157600081600090555060010162000257565b5090565b600082825260208201905092915050565b7f496e76616c696420696e74657266616365207265717565737400000000000000600082015250565b6000620002be60198362000275565b9150620002cb8262000286565b602082019050919050565b60006020820190508181036000830152620002f181620002af565b9050919050565b7f4e487b7100000000000000000000000000000000000000000000000000000000600052602260045260246000fd5b600060028204905060018216806200034057607f821691505b602082108103620003565762000355620002f8565b5b50919050565b611cb2806200036c6000396000f3fe6080604052600436106100dd5760003560e01c8063430c20811161007f57806370a082311161005957806370a08231146102de57806393ab6e561461031b57806395d89b4114610358578063d85d3d2714610383576100dd565b8063430c2081146102275780634f6ccce7146102645780636352211e146102a1576100dd565b8063095ea7b3116100bb578063095ea7b31461018757806318160ddd146101a357806323b872dd146101ce5780632f745c59146101ea576100dd565b806301ffc9a7146100e257806306fdde031461011f578063081812fc1461014a575b600080fd5b3480156100ee57600080fd5b50610109600480360381019061010491906112b7565b6103ac565b60405161011691906112ff565b60405180910390f35b34801561012b57600080fd5b50610134610414565b60405161014191906113b3565b60405180910390f35b34801561015657600080fd5b50610171600480360381019061016c919061140b565b6104a6565b60405161017e9190611479565b60405180910390f35b6101a1600480360381019061019c91906114c0565b6104ad565b005b3480156101af57600080fd5b506101b8610648565b6040516101c5919061150f565b60405180910390f35b6101e860048036038101906101e3919061152a565b610655565b005b3480156101f657600080fd5b50610211600480360381019061020c91906114c0565b610670565b60405161021e919061150f565b60405180910390f35b34801561023357600080fd5b5061024e600480360381019061024991906114c0565b610720565b60405161025b91906112ff565b60405180910390f35b34801561027057600080fd5b5061028b6004803603810190610286919061140b565b6107ed565b604051610298919061150f565b60405180910390f35b3480156102ad57600080fd5b506102c860048036038101906102c3919061140b565b61085e565b6040516102d59190611479565b60405180910390f35b3480156102ea57600080fd5b506103056004803603810190610300919061157d565b61090f565b604051610312919061150f565b60405180910390f35b34801561032757600080fd5b50610342600480360381019061033d919061140b565b6109c6565b60405161034f91906113b3565b60405180910390f35b34801561036457600080fd5b5061036d610a72565b60405161037a91906113b3565b60405180910390f35b34801561038f57600080fd5b506103aa60048036038101906103a5919061160f565b610b04565b005b600060026000837bffffffffffffffffffffffffffffffffffffffffffffffffffffffff19167bffffffffffffffffffffffffffffffffffffffffffffffffffffffff1916815260200190815260200160002060009054906101000a900460ff169050919050565b6060600080546104239061168b565b80601f016020809104026020016040519081016040528092919081815260200182805461044f9061168b565b801561049c5780601f106104715761010080835404028352916020019161049c565b820191906000526020600020905b81548152906001019060200180831161047f57829003601f168201915b5050505050905090565b6000919050565b60006104b88261085e565b90508073ffffffffffffffffffffffffffffffffffffffff168373ffffffffffffffffffffffffffffffffffffffff1603610528576040517f08c379a000000000000000000000000000000000000000000000000000000000815260040161051f90611708565b60405180910390fd5b8073ffffffffffffffffffffffffffffffffffffffff163373ffffffffffffffffffffffffffffffffffffffff1614610596576040517f08c379a000000000000000000000000000000000000000000000000000000000815260040161058d90611774565b60405180910390fd5b826005600084815260200190815260200160002060006101000a81548173ffffffffffffffffffffffffffffffffffffffff021916908373ffffffffffffffffffffffffffffffffffffffff160217905550818373ffffffffffffffffffffffffffffffffffffffff168273ffffffffffffffffffffffffffffffffffffffff167f8c5be1e5ebec7d5bd14f71427d1e84f3dd0314c0f7b2291e5b200ac8c7c3b92560405160405180910390a4505050565b6000600680549050905090565b61065f3382610720565b5061066b838383610c0e565b505050565b600061067b8361090f565b82106106bc576040517f08c379a00000000000000000000000000000000000000000000000000000000081526004016106b3906117e0565b60405180910390fd5b600860008473ffffffffffffffffffffffffffffffffffffffff1673ffffffffffffffffffffffffffffffffffffffff168152602001908152602001600020828154811061070d5761070c611800565b5b9060005260206000200154905092915050565b600061072b82610e53565b61076a576040517f08c379a00000000000000000000000000000000000000000000000000000000081526004016107619061187b565b60405180910390fd5b60006107758361085e565b90508073ffffffffffffffffffffffffffffffffffffffff168473ffffffffffffffffffffffffffffffffffffffff1614806107e457508373ffffffffffffffffffffffffffffffffffffffff166107cc846104a6565b73ffffffffffffffffffffffffffffffffffffffff16145b91505092915050565b60006107f7610648565b8210610838576040517f08c379a000000000000000000000000000000000000000000000000000000000815260040161082f906117e0565b60405180910390fd5b6006828154811061084c5761084b611800565b5b90600052602060002001549050919050565b6000806003600084815260200190815260200160002060009054906101000a900473ffffffffffffffffffffffffffffffffffffffff169050600073ffffffffffffffffffffffffffffffffffffffff168173ffffffffffffffffffffffffffffffffffffffff1603610906576040517f08c379a00000000000000000000000000000000000000000000000000000000081526004016108fd906118e7565b60405180910390fd5b80915050919050565b60008073ffffffffffffffffffffffffffffffffffffffff168273ffffffffffffffffffffffffffffffffffffffff160361097f576040517f08c379a0000000000000000000000000000000000000000000000000000000008152600401610976906118e7565b60405180910390fd5b600460008373ffffffffffffffffffffffffffffffffffffffff1673ffffffffffffffffffffffffffffffffffffffff168152602001908152602001600020549050919050565b600a81815481106109d657600080fd5b9060005260206000200160009150905080546109f19061168b565b80601f0160208091040260200160405190810160405280929190818152602001828054610a1d9061168b565b8015610a6a5780601f10610a3f57610100808354040283529160200191610a6a565b820191906000526020600020905b815481529060010190602001808311610a4d57829003601f168201915b505050505081565b606060018054610a819061168b565b80601f0160208091040260200160405190810160405280929190818152602001828054610aad9061168b565b8015610afa5780601f10610acf57610100808354040283529160200191610afa565b820191906000526020600020905b815481529060010190602001808311610add57829003601f168201915b5050505050905090565b600b8282604051610b16929190611946565b908152602001604051809103902060009054906101000a900460ff1615610b72576040517f08c379a0000000000000000000000000000000000000000000000000000000008152600401610b69906119ab565b60405180910390fd5b600a828290918060018154018082558091505060019003906000526020600020016000909192909192909192909192509190610baf9291906111b2565b5060006001600a80549050610bc491906119fa565b9050610bd03382610ec5565b6001600b8484604051610be4929190611946565b908152602001604051809103902060006101000a81548160ff021916908315150217905550505050565b600073ffffffffffffffffffffffffffffffffffffffff168273ffffffffffffffffffffffffffffffffffffffff1603610c7d576040517f08c379a0000000000000000000000000000000000000000000000000000000008152600401610c7490611a7a565b60405180910390fd5b8273ffffffffffffffffffffffffffffffffffffffff16610c9d8261085e565b73ffffffffffffffffffffffffffffffffffffffff1614610cf3576040517f08c379a0000000000000000000000000000000000000000000000000000000008152600401610cea90611ae6565b60405180910390fd5b6001600460008573ffffffffffffffffffffffffffffffffffffffff1673ffffffffffffffffffffffffffffffffffffffff1681526020019081526020016000206000828254610d4391906119fa565b925050819055506001600460008473ffffffffffffffffffffffffffffffffffffffff1673ffffffffffffffffffffffffffffffffffffffff1681526020019081526020016000206000828254610d9a9190611b06565b92505081905550816003600083815260200190815260200160002060006101000a81548173ffffffffffffffffffffffffffffffffffffffff021916908373ffffffffffffffffffffffffffffffffffffffff160217905550808273ffffffffffffffffffffffffffffffffffffffff168473ffffffffffffffffffffffffffffffffffffffff167fddf252ad1be2c89b69c2b068fc378daa952ba7f163c4a11628f55a4df523b3ef60405160405180910390a4505050565b6000806003600084815260200190815260200160002060009054906101000a900473ffffffffffffffffffffffffffffffffffffffff169050600073ffffffffffffffffffffffffffffffffffffffff168173ffffffffffffffffffffffffffffffffffffffff161415915050919050565b610ecf8282610ee6565b610ed8816110a5565b610ee282826110ee565b5050565b600073ffffffffffffffffffffffffffffffffffffffff168273ffffffffffffffffffffffffffffffffffffffff1603610f55576040517f08c379a0000000000000000000000000000000000000000000000000000000008152600401610f4c90611ba8565b60405180910390fd5b610f5e81610e53565b15610f9e576040517f08c379a0000000000000000000000000000000000000000000000000000000008152600401610f9590611c14565b60405180910390fd5b816003600083815260200190815260200160002060006101000a81548173ffffffffffffffffffffffffffffffffffffffff021916908373ffffffffffffffffffffffffffffffffffffffff160217905550600460008373ffffffffffffffffffffffffffffffffffffffff1673ffffffffffffffffffffffffffffffffffffffff168152602001908152602001600020600081548092919061104090611c34565b9190505550808273ffffffffffffffffffffffffffffffffffffffff16600073ffffffffffffffffffffffffffffffffffffffff167fddf252ad1be2c89b69c2b068fc378daa952ba7f163c4a11628f55a4df523b3ef60405160405180910390a45050565b6006805490506007600083815260200190815260200160002081905550600681908060018154018082558091505060019003906000526020600020016000909190919091505550565b600860008373ffffffffffffffffffffffffffffffffffffffff1673ffffffffffffffffffffffffffffffffffffffff168152602001908152602001600020805490506009600083815260200190815260200160002081905550600860008373ffffffffffffffffffffffffffffffffffffffff1673ffffffffffffffffffffffffffffffffffffffff1681526020019081526020016000208190806001815401808255809150506001900390600052602060002001600090919091909150555050565b8280546111be9061168b565b90600052602060002090601f0160209004810192826111e05760008555611227565b82601f106111f957803560ff1916838001178555611227565b82800160010185558215611227579182015b8281111561122657823582559160200191906001019061120b565b5b5090506112349190611238565b5090565b5b80821115611251576000816000905550600101611239565b5090565b600080fd5b600080fd5b60007fffffffff0000000000000000000000000000000000000000000000000000000082169050919050565b6112948161125f565b811461129f57600080fd5b50565b6000813590506112b18161128b565b92915050565b6000602082840312156112cd576112cc611255565b5b60006112db848285016112a2565b91505092915050565b60008115159050919050565b6112f9816112e4565b82525050565b600060208201905061131460008301846112f0565b92915050565b600081519050919050565b600082825260208201905092915050565b60005b83811015611354578082015181840152602081019050611339565b83811115611363576000848401525b50505050565b6000601f19601f8301169050919050565b60006113858261131a565b61138f8185611325565b935061139f818560208601611336565b6113a881611369565b840191505092915050565b600060208201905081810360008301526113cd818461137a565b905092915050565b6000819050919050565b6113e8816113d5565b81146113f357600080fd5b50565b600081359050611405816113df565b92915050565b60006020828403121561142157611420611255565b5b600061142f848285016113f6565b91505092915050565b600073ffffffffffffffffffffffffffffffffffffffff82169050919050565b600061146382611438565b9050919050565b61147381611458565b82525050565b600060208201905061148e600083018461146a565b92915050565b61149d81611458565b81146114a857600080fd5b50565b6000813590506114ba81611494565b92915050565b600080604083850312156114d7576114d6611255565b5b60006114e5858286016114ab565b92505060206114f6858286016113f6565b9150509250929050565b611509816113d5565b82525050565b60006020820190506115246000830184611500565b92915050565b60008060006060848603121561154357611542611255565b5b6000611551868287016114ab565b9350506020611562868287016114ab565b9250506040611573868287016113f6565b9150509250925092565b60006020828403121561159357611592611255565b5b60006115a1848285016114ab565b91505092915050565b600080fd5b600080fd5b600080fd5b60008083601f8401126115cf576115ce6115aa565b5b8235905067ffffffffffffffff8111156115ec576115eb6115af565b5b602083019150836001820283011115611608576116076115b4565b5b9250929050565b6000806020838503121561162657611625611255565b5b600083013567ffffffffffffffff8111156116445761164361125a565b5b611650858286016115b9565b92509250509250929050565b7f4e487b7100000000000000000000000000000000000000000000000000000000600052602260045260246000fd5b600060028204905060018216806116a357607f821691505b6020821081036116b6576116b561165c565b5b50919050565b7f417070726f76616c20746f207468652073616d65206164647265737300000000600082015250565b60006116f2601c83611325565b91506116fd826116bc565b602082019050919050565b60006020820190508181036000830152611721816116e5565b9050919050565b7f4e6f7420616c6c6f770000000000000000000000000000000000000000000000600082015250565b600061175e600983611325565b915061176982611728565b602082019050919050565b6000602082019050818103600083015261178d81611751565b9050919050565b7f496e646578206f7574206f662072616e67650000000000000000000000000000600082015250565b60006117ca601283611325565b91506117d582611794565b602082019050919050565b600060208201905081810360008301526117f9816117bd565b9050919050565b7f4e487b7100000000000000000000000000000000000000000000000000000000600052603260045260246000fd5b7f4552433732313a206e6f6e2d6578697374656e7420746f6b656e000000000000600082015250565b6000611865601a83611325565b91506118708261182f565b602082019050919050565b6000602082019050818103600083015261189481611858565b9050919050565b7f4f776e657220717565727920666f72207a65726f206164647265737300000000600082015250565b60006118d1601c83611325565b91506118dc8261189b565b602082019050919050565b60006020820190508181036000830152611900816118c4565b9050919050565b600081905092915050565b82818337600083830152505050565b600061192d8385611907565b935061193a838584611912565b82840190509392505050565b6000611953828486611921565b91508190509392505050565b7f4572726f72202d204b4249524420616c72656164792065786973747300000000600082015250565b6000611995601c83611325565b91506119a08261195f565b602082019050919050565b600060208201905081810360008301526119c481611988565b9050919050565b7f4e487b7100000000000000000000000000000000000000000000000000000000600052601160045260246000fd5b6000611a05826113d5565b9150611a10836113d5565b925082821015611a2357611a226119cb565b5b828203905092915050565b7f5472616e7366657220746f20746865207a65726f206164647265737300000000600082015250565b6000611a64601c83611325565b9150611a6f82611a2e565b602082019050919050565b60006020820190508181036000830152611a9381611a57565b9050919050565b7f4164647265737320646f6573206e6f74206f776e2074686520746f6b656e0000600082015250565b6000611ad0601e83611325565b9150611adb82611a9a565b602082019050919050565b60006020820190508181036000830152611aff81611ac3565b9050919050565b6000611b11826113d5565b9150611b1c836113d5565b9250827fffffffffffffffffffffffffffffffffffffffffffffffffffffffffffffffff03821115611b5157611b506119cb565b5b828201905092915050565b7f4552433732313a206d696e7420746f20746865206e756c6c2061646472657373600082015250565b6000611b92602083611325565b9150611b9d82611b5c565b602082019050919050565b60006020820190508181036000830152611bc181611b85565b9050919050565b7f4552433732313a20746f6b656e20616c7265616479206d696e74656400000000600082015250565b6000611bfe601c83611325565b9150611c0982611bc8565b602082019050919050565b60006020820190508181036000830152611c2d81611bf1565b9050919050565b6000611c3f826113d5565b91507fffffffffffffffffffffffffffffffffffffffffffffffffffffffffffffffff8203611c7157611c706119cb565b5b60018201905091905056fea26469706673582212202d72f643b9418938a11cb7a430d7fe8063c8cba7c3af6d5d8675a46a3a02f88e64736f6c634300080d0033",
  "immutableReferences": {},
  "source": "// SPDX-License-Identifier: MIT\npragma solidity >=0.8.0;\n\nimport \"./ERC721Connector.sol\";\n\ncontract KryptoBirdz is ERC721Connector {\n    string[] public kryptoBirdz;\n    mapping(string => bool) private _kryptoBirdzExists;\n\n    constructor() ERC721Connector(\"KryptoBirdz\", \"KBIRDS\") {}\n\n    function mint(string calldata _kryptoBird) public {\n        require(\n            !_kryptoBirdzExists[_kryptoBird],\n            \"Error - KBIRD already exists\"\n        );\n\n        kryptoBirdz.push(_kryptoBird);\n        uint256 _id = kryptoBirdz.length - 1;\n\n        _mint(msg.sender, _id);\n        _kryptoBirdzExists[_kryptoBird] = true;\n    }\n}\n",
  "sourcePath": "/Users/frank/Documents/Developer/nft-marketplace-starter-kit/src/contracts/KryptoBirdz.sol",
  "compiler": {
    "name": "solc",
    "version": "0.8.13+commit.abaa5c0e.Emscripten.clang"
  },
  "schemaVersion": "3.4.3",
  "updatedAt": "2022-05-04T18:21:10.844Z",
  "networkType": "ethereum",
  "devdoc": {
    "kind": "dev",
    "methods": {},
    "version": 1
  },
  "userdoc": {
    "kind": "user",
    "methods": {},
    "version": 1
  }
}