{
  "contractName": "KryptoBirdz",
  "abi": [
    {
      "inputs": [],
      "stateMutability": "nonpayable",
      "type": "constructor"
    },
    {
      "anonymous": false,
      "inputs": [
        {
          "indexed": true,
          "internalType": "address",
          "name": "from",
          "type": "address"
        },
        {
          "indexed": true,
          "internalType": "address",
          "name": "to",
          "type": "address"
        },
        {
          "indexed": true,
          "internalType": "uint256",
          "name": "tokenId",
          "type": "uint256"
        }
      ],
      "name": "Transfer",
      "type": "event"
    },
    {
      "inputs": [
        {
          "internalType": "address",
          "name": "_owner",
          "type": "address"
        }
      ],
      "name": "balanceOf",
      "outputs": [
        {
          "internalType": "uint256",
          "name": "",
          "type": "uint256"
        }
      ],
      "stateMutability": "view",
      "type": "function",
      "constant": true
    },
    {
      "inputs": [
        {
          "internalType": "uint256",
          "name": "",
          "type": "uint256"
        }
      ],
      "name": "kryptoBirdz",
      "outputs": [
        {
          "internalType": "string",
          "name": "",
          "type": "string"
        }
      ],
      "stateMutability": "view",
      "type": "function",
      "constant": true
    },
    {
      "inputs": [],
      "name": "name",
      "outputs": [
        {
          "internalType": "string",
          "name": "n",
          "type": "string"
        }
      ],
      "stateMutability": "view",
      "type": "function",
      "constant": true
    },
    {
      "inputs": [
        {
          "internalType": "uint256",
          "name": "_tokenId",
          "type": "uint256"
        }
      ],
      "name": "ownerOf",
      "outputs": [
        {
          "internalType": "address",
          "name": "",
          "type": "address"
        }
      ],
      "stateMutability": "view",
      "type": "function",
      "constant": true
    },
    {
      "inputs": [],
      "name": "symbol",
      "outputs": [
        {
          "internalType": "string",
          "name": "s",
          "type": "string"
        }
      ],
      "stateMutability": "view",
      "type": "function",
      "constant": true
    },
    {
      "inputs": [
        {
          "internalType": "uint256",
          "name": "index",
          "type": "uint256"
        }
      ],
      "name": "tokenByIndex",
      "outputs": [
        {
          "internalType": "uint256",
          "name": "",
          "type": "uint256"
        }
      ],
      "stateMutability": "view",
      "type": "function",
      "constant": true
    },
    {
      "inputs": [
        {
          "internalType": "address",
          "name": "owner",
          "type": "address"
        },
        {
          "internalType": "uint256",
          "name": "index",
          "type": "uint256"
        }
      ],
      "name": "tokenOfOwnerByIndex",
      "outputs": [
        {
          "internalType": "uint256",
          "name": "",
          "type": "uint256"
        }
      ],
      "stateMutability": "view",
      "type": "function",
      "constant": true
    },
    {
      "inputs": [],
      "name": "totalSupply",
      "outputs": [
        {
          "internalType": "uint256",
          "name": "",
          "type": "uint256"
        }
      ],
      "stateMutability": "view",
      "type": "function",
      "constant": true
    },
    {
      "inputs": [
        {
          "internalType": "string",
          "name": "_kryptoBird",
          "type": "string"
        }
      ],
      "name": "mint",
      "outputs": [],
      "stateMutability": "nonpayable",
      "type": "function"
    }
  ],
  "bytecode": "0x60806040523480156200001157600080fd5b506040518060400160405280600b81526020017f4b727970746f426972647a0000000000000000000000000000000000000000008152506040518060400160405280600681526020017f4b424952445300000000000000000000000000000000000000000000000000008152508181816000908051906020019062000098929190620000bc565b508060019080519060200190620000b1929190620000bc565b5050505050620001d0565b828054620000ca906200019b565b90600052602060002090601f016020900481019282620000ee57600085556200013a565b82601f106200010957805160ff19168380011785556200013a565b828001600101855582156200013a579182015b82811115620001395782518255916020019190600101906200011c565b5b5090506200014991906200014d565b5090565b5b80821115620001685760008160009055506001016200014e565b5090565b7f4e487b7100000000000000000000000000000000000000000000000000000000600052602260045260246000fd5b60006002820490506001821680620001b457607f821691505b602082108103620001ca57620001c96200016c565b5b50919050565b61124d80620001e06000396000f3fe608060405234801561001057600080fd5b50600436106100935760003560e01c80636352211e116100665780636352211e1461013457806370a082311461016457806393ab6e561461019457806395d89b41146101c4578063d85d3d27146101e257610093565b806306fdde031461009857806318160ddd146100b65780632f745c59146100d45780634f6ccce714610104575b600080fd5b6100a06101fe565b6040516100ad9190610c09565b60405180910390f35b6100be610290565b6040516100cb9190610c44565b60405180910390f35b6100ee60048036038101906100e99190610cf3565b61029d565b6040516100fb9190610c44565b60405180910390f35b61011e60048036038101906101199190610d33565b61034d565b60405161012b9190610c44565b60405180910390f35b61014e60048036038101906101499190610d33565b6103be565b60405161015b9190610d6f565b60405180910390f35b61017e60048036038101906101799190610d8a565b61046f565b60405161018b9190610c44565b60405180910390f35b6101ae60048036038101906101a99190610d33565b610526565b6040516101bb9190610c09565b60405180910390f35b6101cc6105d2565b6040516101d99190610c09565b60405180910390f35b6101fc60048036038101906101f79190610e1c565b610664565b005b60606000805461020d90610e98565b80601f016020809104026020016040519081016040528092919081815260200182805461023990610e98565b80156102865780601f1061025b57610100808354040283529160200191610286565b820191906000526020600020905b81548152906001019060200180831161026957829003601f168201915b5050505050905090565b6000600480549050905090565b60006102a88361046f565b82106102e9576040517f08c379a00000000000000000000000000000000000000000000000000000000081526004016102e090610f15565b60405180910390fd5b600660008473ffffffffffffffffffffffffffffffffffffffff1673ffffffffffffffffffffffffffffffffffffffff168152602001908152602001600020828154811061033a57610339610f35565b5b9060005260206000200154905092915050565b6000610357610290565b8210610398576040517f08c379a000000000000000000000000000000000000000000000000000000000815260040161038f90610f15565b60405180910390fd5b600482815481106103ac576103ab610f35565b5b90600052602060002001549050919050565b6000806002600084815260200190815260200160002060009054906101000a900473ffffffffffffffffffffffffffffffffffffffff169050600073ffffffffffffffffffffffffffffffffffffffff168173ffffffffffffffffffffffffffffffffffffffff1603610466576040517f08c379a000000000000000000000000000000000000000000000000000000000815260040161045d90610fb0565b60405180910390fd5b80915050919050565b60008073ffffffffffffffffffffffffffffffffffffffff168273ffffffffffffffffffffffffffffffffffffffff16036104df576040517f08c379a00000000000000000000000000000000000000000000000000000000081526004016104d690610fb0565b60405180910390fd5b600360008373ffffffffffffffffffffffffffffffffffffffff1673ffffffffffffffffffffffffffffffffffffffff168152602001908152602001600020549050919050565b6008818154811061053657600080fd5b90600052602060002001600091509050805461055190610e98565b80601f016020809104026020016040519081016040528092919081815260200182805461057d90610e98565b80156105ca5780601f1061059f576101008083540402835291602001916105ca565b820191906000526020600020905b8154815290600101906020018083116105ad57829003601f168201915b505050505081565b6060600180546105e190610e98565b80601f016020809104026020016040519081016040528092919081815260200182805461060d90610e98565b801561065a5780601f1061062f5761010080835404028352916020019161065a565b820191906000526020600020905b81548152906001019060200180831161063d57829003601f168201915b5050505050905090565b6009828260405161067692919061100f565b908152602001604051809103902060009054906101000a900460ff16156106d2576040517f08c379a00000000000000000000000000000000000000000000000000000000081526004016106c990611074565b60405180910390fd5b600882829091806001815401808255809150506001900390600052602060002001600090919290919290919290919250919061070f929190610acd565b506000600160088054905061072491906110c3565b9050610730338261076e565b60016009848460405161074492919061100f565b908152602001604051809103902060006101000a81548160ff021916908315150217905550505050565b610778828261078f565b6107818161094e565b61078b8282610997565b5050565b600073ffffffffffffffffffffffffffffffffffffffff168273ffffffffffffffffffffffffffffffffffffffff16036107fe576040517f08c379a00000000000000000000000000000000000000000000000000000000081526004016107f590611143565b60405180910390fd5b61080781610a5b565b15610847576040517f08c379a000000000000000000000000000000000000000000000000000000000815260040161083e906111af565b60405180910390fd5b816002600083815260200190815260200160002060006101000a81548173ffffffffffffffffffffffffffffffffffffffff021916908373ffffffffffffffffffffffffffffffffffffffff160217905550600360008373ffffffffffffffffffffffffffffffffffffffff1673ffffffffffffffffffffffffffffffffffffffff16815260200190815260200160002060008154809291906108e9906111cf565b9190505550808273ffffffffffffffffffffffffffffffffffffffff16600073ffffffffffffffffffffffffffffffffffffffff167fddf252ad1be2c89b69c2b068fc378daa952ba7f163c4a11628f55a4df523b3ef60405160405180910390a45050565b6004805490506005600083815260200190815260200160002081905550600481908060018154018082558091505060019003906000526020600020016000909190919091505550565b600660008373ffffffffffffffffffffffffffffffffffffffff1673ffffffffffffffffffffffffffffffffffffffff168152602001908152602001600020805490506007600083815260200190815260200160002081905550600660008373ffffffffffffffffffffffffffffffffffffffff1673ffffffffffffffffffffffffffffffffffffffff1681526020019081526020016000208190806001815401808255809150506001900390600052602060002001600090919091909150555050565b6000806002600084815260200190815260200160002060009054906101000a900473ffffffffffffffffffffffffffffffffffffffff169050600073ffffffffffffffffffffffffffffffffffffffff168173ffffffffffffffffffffffffffffffffffffffff161415915050919050565b828054610ad990610e98565b90600052602060002090601f016020900481019282610afb5760008555610b42565b82601f10610b1457803560ff1916838001178555610b42565b82800160010185558215610b42579182015b82811115610b41578235825591602001919060010190610b26565b5b509050610b4f9190610b53565b5090565b5b80821115610b6c576000816000905550600101610b54565b5090565b600081519050919050565b600082825260208201905092915050565b60005b83811015610baa578082015181840152602081019050610b8f565b83811115610bb9576000848401525b50505050565b6000601f19601f8301169050919050565b6000610bdb82610b70565b610be58185610b7b565b9350610bf5818560208601610b8c565b610bfe81610bbf565b840191505092915050565b60006020820190508181036000830152610c238184610bd0565b905092915050565b6000819050919050565b610c3e81610c2b565b82525050565b6000602082019050610c596000830184610c35565b92915050565b600080fd5b600080fd5b600073ffffffffffffffffffffffffffffffffffffffff82169050919050565b6000610c9482610c69565b9050919050565b610ca481610c89565b8114610caf57600080fd5b50565b600081359050610cc181610c9b565b92915050565b610cd081610c2b565b8114610cdb57600080fd5b50565b600081359050610ced81610cc7565b92915050565b60008060408385031215610d0a57610d09610c5f565b5b6000610d1885828601610cb2565b9250506020610d2985828601610cde565b9150509250929050565b600060208284031215610d4957610d48610c5f565b5b6000610d5784828501610cde565b91505092915050565b610d6981610c89565b82525050565b6000602082019050610d846000830184610d60565b92915050565b600060208284031215610da057610d9f610c5f565b5b6000610dae84828501610cb2565b91505092915050565b600080fd5b600080fd5b600080fd5b60008083601f840112610ddc57610ddb610db7565b5b8235905067ffffffffffffffff811115610df957610df8610dbc565b5b602083019150836001820283011115610e1557610e14610dc1565b5b9250929050565b60008060208385031215610e3357610e32610c5f565b5b600083013567ffffffffffffffff811115610e5157610e50610c64565b5b610e5d85828601610dc6565b92509250509250929050565b7f4e487b7100000000000000000000000000000000000000000000000000000000600052602260045260246000fd5b60006002820490506001821680610eb057607f821691505b602082108103610ec357610ec2610e69565b5b50919050565b7f496e646578206f7574206f662072616e67650000000000000000000000000000600082015250565b6000610eff601283610b7b565b9150610f0a82610ec9565b602082019050919050565b60006020820190508181036000830152610f2e81610ef2565b9050919050565b7f4e487b7100000000000000000000000000000000000000000000000000000000600052603260045260246000fd5b7f4f776e657220717565727920666f72207a65726f206164647265737300000000600082015250565b6000610f9a601c83610b7b565b9150610fa582610f64565b602082019050919050565b60006020820190508181036000830152610fc981610f8d565b9050919050565b600081905092915050565b82818337600083830152505050565b6000610ff68385610fd0565b9350611003838584610fdb565b82840190509392505050565b600061101c828486610fea565b91508190509392505050565b7f4572726f72202d204b4249524420616c72656164792065786973747300000000600082015250565b600061105e601c83610b7b565b915061106982611028565b602082019050919050565b6000602082019050818103600083015261108d81611051565b9050919050565b7f4e487b7100000000000000000000000000000000000000000000000000000000600052601160045260246000fd5b60006110ce82610c2b565b91506110d983610c2b565b9250828210156110ec576110eb611094565b5b828203905092915050565b7f4552433732313a206d696e7420746f20746865206e756c6c2061646472657373600082015250565b600061112d602083610b7b565b9150611138826110f7565b602082019050919050565b6000602082019050818103600083015261115c81611120565b9050919050565b7f4552433732313a20746f6b656e20616c7265616479206d696e74656400000000600082015250565b6000611199601c83610b7b565b91506111a482611163565b602082019050919050565b600060208201905081810360008301526111c88161118c565b9050919050565b60006111da82610c2b565b91507fffffffffffffffffffffffffffffffffffffffffffffffffffffffffffffffff820361120c5761120b611094565b5b60018201905091905056fea2646970667358221220c7c7530a622339e7a5e50207597025df6597fbd0c08abda2f395bfb3dc12ac1c64736f6c634300080d0033",
  "immutableReferences": {},
  "source": "// SPDX-License-Identifier: MIT\npragma solidity >=0.8.0;\n\nimport \"./ERC721Connector.sol\";\n\ncontract KryptoBirdz is ERC721Connector {\n    string[] public kryptoBirdz;\n    mapping(string => bool) private _kryptoBirdzExists;\n\n    constructor() ERC721Connector(\"KryptoBirdz\", \"KBIRDS\") {}\n\n    function mint(string calldata _kryptoBird) public {\n        require(\n            !_kryptoBirdzExists[_kryptoBird],\n            \"Error - KBIRD already exists\"\n        );\n\n        kryptoBirdz.push(_kryptoBird);\n        uint256 _id = kryptoBirdz.length - 1;\n\n        _mint(msg.sender, _id);\n        _kryptoBirdzExists[_kryptoBird] = true;\n    }\n}\n",
  "sourcePath": "/Users/frank/Documents/Developer/nft-marketplace-starter-kit/src/contracts/KryptoBirdz.sol",
  "compiler": {
    "name": "solc",
    "version": "0.8.13+commit.abaa5c0e.Emscripten.clang"
  },
  "schemaVersion": "3.4.3",
  "updatedAt": "2022-05-04T05:35:00.151Z",
  "networkType": "ethereum",
  "devdoc": {
    "kind": "dev",
    "methods": {},
    "version": 1
  },
  "userdoc": {
    "kind": "user",
    "methods": {},
    "version": 1
  }
}