{
  "contractName": "KryptoBirdz",
  "abi": [
    {
      "inputs": [],
      "stateMutability": "nonpayable",
      "type": "constructor"
    },
    {
      "anonymous": false,
      "inputs": [
        {
          "indexed": true,
          "internalType": "address",
          "name": "from",
          "type": "address"
        },
        {
          "indexed": true,
          "internalType": "address",
          "name": "to",
          "type": "address"
        },
        {
          "indexed": true,
          "internalType": "uint256",
          "name": "tokenId",
          "type": "uint256"
        }
      ],
      "name": "Transfer",
      "type": "event"
    },
    {
      "inputs": [
        {
          "internalType": "address",
          "name": "_owner",
          "type": "address"
        }
      ],
      "name": "balanceOf",
      "outputs": [
        {
          "internalType": "uint256",
          "name": "",
          "type": "uint256"
        }
      ],
      "stateMutability": "view",
      "type": "function",
      "constant": true
    },
    {
      "inputs": [
        {
          "internalType": "uint256",
          "name": "",
          "type": "uint256"
        }
      ],
      "name": "kryptoBirdz",
      "outputs": [
        {
          "internalType": "string",
          "name": "",
          "type": "string"
        }
      ],
      "stateMutability": "view",
      "type": "function",
      "constant": true
    },
    {
      "inputs": [],
      "name": "name",
      "outputs": [
        {
          "internalType": "string",
          "name": "n",
          "type": "string"
        }
      ],
      "stateMutability": "view",
      "type": "function",
      "constant": true
    },
    {
      "inputs": [
        {
          "internalType": "uint256",
          "name": "_tokenId",
          "type": "uint256"
        }
      ],
      "name": "ownerOf",
      "outputs": [
        {
          "internalType": "address",
          "name": "",
          "type": "address"
        }
      ],
      "stateMutability": "view",
      "type": "function",
      "constant": true
    },
    {
      "inputs": [],
      "name": "symbol",
      "outputs": [
        {
          "internalType": "string",
          "name": "s",
          "type": "string"
        }
      ],
      "stateMutability": "view",
      "type": "function",
      "constant": true
    },
    {
      "inputs": [],
      "name": "totalSupply",
      "outputs": [
        {
          "internalType": "uint256",
          "name": "",
          "type": "uint256"
        }
      ],
      "stateMutability": "view",
      "type": "function",
      "constant": true
    },
    {
      "inputs": [
        {
          "internalType": "string",
          "name": "_kryptoBird",
          "type": "string"
        }
      ],
      "name": "mint",
      "outputs": [],
      "stateMutability": "nonpayable",
      "type": "function"
    }
  ],
  "bytecode": "0x60806040523480156200001157600080fd5b506040518060400160405280600b81526020017f4b727970746f426972647a0000000000000000000000000000000000000000008152506040518060400160405280600681526020017f4b424952445300000000000000000000000000000000000000000000000000008152508181816000908051906020019062000098929190620000bc565b508060019080519060200190620000b1929190620000bc565b5050505050620001d0565b828054620000ca906200019b565b90600052602060002090601f016020900481019282620000ee57600085556200013a565b82601f106200010957805160ff19168380011785556200013a565b828001600101855582156200013a579182015b82811115620001395782518255916020019190600101906200011c565b5b5090506200014991906200014d565b5090565b5b80821115620001685760008160009055506001016200014e565b5090565b7f4e487b7100000000000000000000000000000000000000000000000000000000600052602260045260246000fd5b60006002820490506001821680620001b457607f821691505b602082108103620001ca57620001c96200016c565b5b50919050565b610ef080620001e06000396000f3fe608060405234801561001057600080fd5b506004361061007d5760003560e01c806370a082311161005b57806370a08231146100ee57806393ab6e561461011e57806395d89b411461014e578063d85d3d271461016c5761007d565b806306fdde031461008257806318160ddd146100a05780636352211e146100be575b600080fd5b61008a610188565b6040516100979190610987565b60405180910390f35b6100a861021a565b6040516100b591906109c2565b60405180910390f35b6100d860048036038101906100d39190610a13565b610227565b6040516100e59190610a81565b60405180910390f35b61010860048036038101906101039190610ac8565b6102d8565b60405161011591906109c2565b60405180910390f35b61013860048036038101906101339190610a13565b61038f565b6040516101459190610987565b60405180910390f35b61015661043b565b6040516101639190610987565b60405180910390f35b61018660048036038101906101819190610b5a565b6104cd565b005b60606000805461019790610bd6565b80601f01602080910402602001604051908101604052809291908181526020018280546101c390610bd6565b80156102105780601f106101e557610100808354040283529160200191610210565b820191906000526020600020905b8154815290600101906020018083116101f357829003601f168201915b5050505050905090565b6000600480549050905090565b6000806002600084815260200190815260200160002060009054906101000a900473ffffffffffffffffffffffffffffffffffffffff169050600073ffffffffffffffffffffffffffffffffffffffff168173ffffffffffffffffffffffffffffffffffffffff16036102cf576040517f08c379a00000000000000000000000000000000000000000000000000000000081526004016102c690610c53565b60405180910390fd5b80915050919050565b60008073ffffffffffffffffffffffffffffffffffffffff168273ffffffffffffffffffffffffffffffffffffffff1603610348576040517f08c379a000000000000000000000000000000000000000000000000000000000815260040161033f90610c53565b60405180910390fd5b600360008373ffffffffffffffffffffffffffffffffffffffff1673ffffffffffffffffffffffffffffffffffffffff168152602001908152602001600020549050919050565b6008818154811061039f57600080fd5b9060005260206000200160009150905080546103ba90610bd6565b80601f01602080910402602001604051908101604052809291908181526020018280546103e690610bd6565b80156104335780601f1061040857610100808354040283529160200191610433565b820191906000526020600020905b81548152906001019060200180831161041657829003601f168201915b505050505081565b60606001805461044a90610bd6565b80601f016020809104026020016040519081016040528092919081815260200182805461047690610bd6565b80156104c35780601f10610498576101008083540402835291602001916104c3565b820191906000526020600020905b8154815290600101906020018083116104a657829003601f168201915b5050505050905090565b600982826040516104df929190610cb2565b908152602001604051809103902060009054906101000a900460ff161561053b576040517f08c379a000000000000000000000000000000000000000000000000000000000815260040161053290610d17565b60405180910390fd5b600882829091806001815401808255809150506001900390600052602060002001600090919290919290919290919250919061057892919061084b565b506000600160088054905061058d9190610d66565b905061059933826105d7565b6001600984846040516105ad929190610cb2565b908152602001604051809103902060006101000a81548160ff021916908315150217905550505050565b6105e182826105ee565b6105ea816107ad565b5050565b600073ffffffffffffffffffffffffffffffffffffffff168273ffffffffffffffffffffffffffffffffffffffff160361065d576040517f08c379a000000000000000000000000000000000000000000000000000000000815260040161065490610de6565b60405180910390fd5b610666816107d9565b156106a6576040517f08c379a000000000000000000000000000000000000000000000000000000000815260040161069d90610e52565b60405180910390fd5b816002600083815260200190815260200160002060006101000a81548173ffffffffffffffffffffffffffffffffffffffff021916908373ffffffffffffffffffffffffffffffffffffffff160217905550600360008373ffffffffffffffffffffffffffffffffffffffff1673ffffffffffffffffffffffffffffffffffffffff168152602001908152602001600020600081548092919061074890610e72565b9190505550808273ffffffffffffffffffffffffffffffffffffffff16600073ffffffffffffffffffffffffffffffffffffffff167fddf252ad1be2c89b69c2b068fc378daa952ba7f163c4a11628f55a4df523b3ef60405160405180910390a45050565b600481908060018154018082558091505060019003906000526020600020016000909190919091505550565b6000806002600084815260200190815260200160002060009054906101000a900473ffffffffffffffffffffffffffffffffffffffff169050600073ffffffffffffffffffffffffffffffffffffffff168173ffffffffffffffffffffffffffffffffffffffff161415915050919050565b82805461085790610bd6565b90600052602060002090601f01602090048101928261087957600085556108c0565b82601f1061089257803560ff19168380011785556108c0565b828001600101855582156108c0579182015b828111156108bf5782358255916020019190600101906108a4565b5b5090506108cd91906108d1565b5090565b5b808211156108ea5760008160009055506001016108d2565b5090565b600081519050919050565b600082825260208201905092915050565b60005b8381101561092857808201518184015260208101905061090d565b83811115610937576000848401525b50505050565b6000601f19601f8301169050919050565b6000610959826108ee565b61096381856108f9565b935061097381856020860161090a565b61097c8161093d565b840191505092915050565b600060208201905081810360008301526109a1818461094e565b905092915050565b6000819050919050565b6109bc816109a9565b82525050565b60006020820190506109d760008301846109b3565b92915050565b600080fd5b600080fd5b6109f0816109a9565b81146109fb57600080fd5b50565b600081359050610a0d816109e7565b92915050565b600060208284031215610a2957610a286109dd565b5b6000610a37848285016109fe565b91505092915050565b600073ffffffffffffffffffffffffffffffffffffffff82169050919050565b6000610a6b82610a40565b9050919050565b610a7b81610a60565b82525050565b6000602082019050610a966000830184610a72565b92915050565b610aa581610a60565b8114610ab057600080fd5b50565b600081359050610ac281610a9c565b92915050565b600060208284031215610ade57610add6109dd565b5b6000610aec84828501610ab3565b91505092915050565b600080fd5b600080fd5b600080fd5b60008083601f840112610b1a57610b19610af5565b5b8235905067ffffffffffffffff811115610b3757610b36610afa565b5b602083019150836001820283011115610b5357610b52610aff565b5b9250929050565b60008060208385031215610b7157610b706109dd565b5b600083013567ffffffffffffffff811115610b8f57610b8e6109e2565b5b610b9b85828601610b04565b92509250509250929050565b7f4e487b7100000000000000000000000000000000000000000000000000000000600052602260045260246000fd5b60006002820490506001821680610bee57607f821691505b602082108103610c0157610c00610ba7565b5b50919050565b7f4f776e657220717565727920666f72207a65726f206164647265737300000000600082015250565b6000610c3d601c836108f9565b9150610c4882610c07565b602082019050919050565b60006020820190508181036000830152610c6c81610c30565b9050919050565b600081905092915050565b82818337600083830152505050565b6000610c998385610c73565b9350610ca6838584610c7e565b82840190509392505050565b6000610cbf828486610c8d565b91508190509392505050565b7f4572726f72202d204b4249524420616c72656164792065786973747300000000600082015250565b6000610d01601c836108f9565b9150610d0c82610ccb565b602082019050919050565b60006020820190508181036000830152610d3081610cf4565b9050919050565b7f4e487b7100000000000000000000000000000000000000000000000000000000600052601160045260246000fd5b6000610d71826109a9565b9150610d7c836109a9565b925082821015610d8f57610d8e610d37565b5b828203905092915050565b7f4552433732313a206d696e7420746f20746865206e756c6c2061646472657373600082015250565b6000610dd06020836108f9565b9150610ddb82610d9a565b602082019050919050565b60006020820190508181036000830152610dff81610dc3565b9050919050565b7f4552433732313a20746f6b656e20616c7265616479206d696e74656400000000600082015250565b6000610e3c601c836108f9565b9150610e4782610e06565b602082019050919050565b60006020820190508181036000830152610e6b81610e2f565b9050919050565b6000610e7d826109a9565b91507fffffffffffffffffffffffffffffffffffffffffffffffffffffffffffffffff8203610eaf57610eae610d37565b5b60018201905091905056fea2646970667358221220c10b703423424b1d5d1eca3287591f6d7f3a4b4376a30341fb30f99f9466325064736f6c634300080d0033",
  "immutableReferences": {},
  "source": "// SPDX-License-Identifier: MIT\npragma solidity >=0.8.0;\n\nimport \"./ERC721Connector.sol\";\n\ncontract KryptoBirdz is ERC721Connector {\n    string[] public kryptoBirdz;\n    mapping(string => bool) private _kryptoBirdzExists;\n\n    constructor() ERC721Connector(\"KryptoBirdz\", \"KBIRDS\") {}\n\n    function mint(string calldata _kryptoBird) public {\n        require(\n            !_kryptoBirdzExists[_kryptoBird],\n            \"Error - KBIRD already exists\"\n        );\n\n        kryptoBirdz.push(_kryptoBird);\n        uint256 _id = kryptoBirdz.length - 1;\n\n        _mint(msg.sender, _id);\n        _kryptoBirdzExists[_kryptoBird] = true;\n    }\n}\n",
  "sourcePath": "/Users/frank/Documents/Developer/nft-marketplace-starter-kit/src/contracts/KryptoBirdz.sol",
  "compiler": {
    "name": "solc",
    "version": "0.8.13+commit.abaa5c0e.Emscripten.clang"
  },
  "schemaVersion": "3.4.3",
  "updatedAt": "2022-05-04T05:09:30.586Z",
  "networkType": "ethereum",
  "devdoc": {
    "kind": "dev",
    "methods": {},
    "version": 1
  },
  "userdoc": {
    "kind": "user",
    "methods": {},
    "version": 1
  }
}